{
  "contracts/DIDRegistry.sol": {
    "DIDRegistry": {
      "abi": [
        {
          "anonymous": false,
          "inputs": [
            {
              "indexed": true,
              "internalType": "address",
              "name": "identity",
              "type": "address"
            },
            {
              "indexed": false,
              "internalType": "bytes32",
              "name": "name",
              "type": "bytes32"
            },
            {
              "indexed": false,
              "internalType": "bytes",
              "name": "value",
              "type": "bytes"
            },
            {
              "indexed": false,
              "internalType": "uint256",
              "name": "validTo",
              "type": "uint256"
            },
            {
              "indexed": false,
              "internalType": "uint256",
              "name": "previousChange",
              "type": "uint256"
            }
          ],
          "name": "DIDAttributeChanged",
          "type": "event"
        },
        {
          "anonymous": false,
          "inputs": [
            {
              "indexed": true,
              "internalType": "address",
              "name": "identity",
              "type": "address"
            },
            {
              "indexed": false,
              "internalType": "bytes32",
              "name": "delegateType",
              "type": "bytes32"
            },
            {
              "indexed": false,
              "internalType": "address",
              "name": "delegate",
              "type": "address"
            },
            {
              "indexed": false,
              "internalType": "uint256",
              "name": "validTo",
              "type": "uint256"
            },
            {
              "indexed": false,
              "internalType": "uint256",
              "name": "previousChange",
              "type": "uint256"
            }
          ],
          "name": "DIDDelegateChanged",
          "type": "event"
        },
        {
          "anonymous": false,
          "inputs": [
            {
              "indexed": true,
              "internalType": "address",
              "name": "identity",
              "type": "address"
            },
            {
              "indexed": false,
              "internalType": "address",
              "name": "owner",
              "type": "address"
            },
            {
              "indexed": false,
              "internalType": "uint256",
              "name": "previousChange",
              "type": "uint256"
            }
          ],
          "name": "DIDOwnerChanged",
          "type": "event"
        },
        {
          "inputs": [
            {
              "internalType": "address",
              "name": "identity",
              "type": "address"
            },
            {
              "internalType": "bytes32",
              "name": "delegateType",
              "type": "bytes32"
            },
            {
              "internalType": "address",
              "name": "delegate",
              "type": "address"
            },
            {
              "internalType": "uint256",
              "name": "validity",
              "type": "uint256"
            }
          ],
          "name": "addDelegate",
          "outputs": [],
          "stateMutability": "nonpayable",
          "type": "function"
        },
        {
          "inputs": [
            {
              "internalType": "address",
              "name": "identity",
              "type": "address"
            },
            {
              "internalType": "uint8",
              "name": "sigV",
              "type": "uint8"
            },
            {
              "internalType": "bytes32",
              "name": "sigR",
              "type": "bytes32"
            },
            {
              "internalType": "bytes32",
              "name": "sigS",
              "type": "bytes32"
            },
            {
              "internalType": "bytes32",
              "name": "delegateType",
              "type": "bytes32"
            },
            {
              "internalType": "address",
              "name": "delegate",
              "type": "address"
            },
            {
              "internalType": "uint256",
              "name": "validity",
              "type": "uint256"
            }
          ],
          "name": "addDelegateSigned",
          "outputs": [],
          "stateMutability": "nonpayable",
          "type": "function"
        },
        {
          "inputs": [
            {
              "internalType": "address",
              "name": "identity",
              "type": "address"
            },
            {
              "internalType": "address",
              "name": "newOwner",
              "type": "address"
            }
          ],
          "name": "changeOwner",
          "outputs": [],
          "stateMutability": "nonpayable",
          "type": "function"
        },
        {
          "inputs": [
            {
              "internalType": "address",
              "name": "identity",
              "type": "address"
            },
            {
              "internalType": "uint8",
              "name": "sigV",
              "type": "uint8"
            },
            {
              "internalType": "bytes32",
              "name": "sigR",
              "type": "bytes32"
            },
            {
              "internalType": "bytes32",
              "name": "sigS",
              "type": "bytes32"
            },
            {
              "internalType": "address",
              "name": "newOwner",
              "type": "address"
            }
          ],
          "name": "changeOwnerSigned",
          "outputs": [],
          "stateMutability": "nonpayable",
          "type": "function"
        },
        {
          "inputs": [
            {
              "internalType": "address",
              "name": "",
              "type": "address"
            }
          ],
          "name": "changed",
          "outputs": [
            {
              "internalType": "uint256",
              "name": "",
              "type": "uint256"
            }
          ],
          "stateMutability": "view",
          "type": "function"
        },
        {
          "inputs": [
            {
              "internalType": "address",
              "name": "",
              "type": "address"
            },
            {
              "internalType": "bytes32",
              "name": "",
              "type": "bytes32"
            },
            {
              "internalType": "address",
              "name": "",
              "type": "address"
            }
          ],
          "name": "delegates",
          "outputs": [
            {
              "internalType": "uint256",
              "name": "",
              "type": "uint256"
            }
          ],
          "stateMutability": "view",
          "type": "function"
        },
        {
          "inputs": [
            {
              "internalType": "address",
              "name": "identity",
              "type": "address"
            }
          ],
          "name": "identityOwner",
          "outputs": [
            {
              "internalType": "address",
              "name": "",
              "type": "address"
            }
          ],
          "stateMutability": "view",
          "type": "function"
        },
        {
          "inputs": [
            {
              "internalType": "address",
              "name": "",
              "type": "address"
            }
          ],
          "name": "nonce",
          "outputs": [
            {
              "internalType": "uint256",
              "name": "",
              "type": "uint256"
            }
          ],
          "stateMutability": "view",
          "type": "function"
        },
        {
          "inputs": [
            {
              "internalType": "address",
              "name": "",
              "type": "address"
            }
          ],
          "name": "owners",
          "outputs": [
            {
              "internalType": "address",
              "name": "",
              "type": "address"
            }
          ],
          "stateMutability": "view",
          "type": "function"
        },
        {
          "inputs": [
            {
              "internalType": "address",
              "name": "identity",
              "type": "address"
            },
            {
              "internalType": "bytes32",
              "name": "name",
              "type": "bytes32"
            },
            {
              "internalType": "bytes",
              "name": "value",
              "type": "bytes"
            }
          ],
          "name": "revokeAttribute",
          "outputs": [],
          "stateMutability": "nonpayable",
          "type": "function"
        },
        {
          "inputs": [
            {
              "internalType": "address",
              "name": "identity",
              "type": "address"
            },
            {
              "internalType": "uint8",
              "name": "sigV",
              "type": "uint8"
            },
            {
              "internalType": "bytes32",
              "name": "sigR",
              "type": "bytes32"
            },
            {
              "internalType": "bytes32",
              "name": "sigS",
              "type": "bytes32"
            },
            {
              "internalType": "bytes32",
              "name": "name",
              "type": "bytes32"
            },
            {
              "internalType": "bytes",
              "name": "value",
              "type": "bytes"
            }
          ],
          "name": "revokeAttributeSigned",
          "outputs": [],
          "stateMutability": "nonpayable",
          "type": "function"
        },
        {
          "inputs": [
            {
              "internalType": "address",
              "name": "identity",
              "type": "address"
            },
            {
              "internalType": "bytes32",
              "name": "delegateType",
              "type": "bytes32"
            },
            {
              "internalType": "address",
              "name": "delegate",
              "type": "address"
            }
          ],
          "name": "revokeDelegate",
          "outputs": [],
          "stateMutability": "nonpayable",
          "type": "function"
        },
        {
          "inputs": [
            {
              "internalType": "address",
              "name": "identity",
              "type": "address"
            },
            {
              "internalType": "uint8",
              "name": "sigV",
              "type": "uint8"
            },
            {
              "internalType": "bytes32",
              "name": "sigR",
              "type": "bytes32"
            },
            {
              "internalType": "bytes32",
              "name": "sigS",
              "type": "bytes32"
            },
            {
              "internalType": "bytes32",
              "name": "delegateType",
              "type": "bytes32"
            },
            {
              "internalType": "address",
              "name": "delegate",
              "type": "address"
            }
          ],
          "name": "revokeDelegateSigned",
          "outputs": [],
          "stateMutability": "nonpayable",
          "type": "function"
        },
        {
          "inputs": [
            {
              "internalType": "address",
              "name": "identity",
              "type": "address"
            },
            {
              "internalType": "bytes32",
              "name": "name",
              "type": "bytes32"
            },
            {
              "internalType": "bytes",
              "name": "value",
              "type": "bytes"
            },
            {
              "internalType": "uint256",
              "name": "validity",
              "type": "uint256"
            }
          ],
          "name": "setAttribute",
          "outputs": [],
          "stateMutability": "nonpayable",
          "type": "function"
        },
        {
          "inputs": [
            {
              "internalType": "address",
              "name": "identity",
              "type": "address"
            },
            {
              "internalType": "uint8",
              "name": "sigV",
              "type": "uint8"
            },
            {
              "internalType": "bytes32",
              "name": "sigR",
              "type": "bytes32"
            },
            {
              "internalType": "bytes32",
              "name": "sigS",
              "type": "bytes32"
            },
            {
              "internalType": "bytes32",
              "name": "name",
              "type": "bytes32"
            },
            {
              "internalType": "bytes",
              "name": "value",
              "type": "bytes"
            },
            {
              "internalType": "uint256",
              "name": "validity",
              "type": "uint256"
            }
          ],
          "name": "setAttributeSigned",
          "outputs": [],
          "stateMutability": "nonpayable",
          "type": "function"
        },
        {
          "inputs": [
            {
              "internalType": "address",
              "name": "identity",
              "type": "address"
            },
            {
              "internalType": "bytes32",
              "name": "delegateType",
              "type": "bytes32"
            },
            {
              "internalType": "address",
              "name": "delegate",
              "type": "address"
            }
          ],
          "name": "validDelegate",
          "outputs": [
            {
              "internalType": "bool",
              "name": "",
              "type": "bool"
            }
          ],
          "stateMutability": "view",
          "type": "function"
        }
      ],
      "evm": {
        "bytecode": {
          "linkReferences": {},
          "object": "608060405234801561001057600080fd5b506124d5806100206000396000f3fe608060405234801561001057600080fd5b50600436106100ff5760003560e01c806380b29f7c11610097578063a7068d6611610066578063a7068d66146102b8578063e476af5c146102d4578063f00d4b5d146102f0578063f96d0f9f1461030c576100ff565b806380b29f7c146102345780638733d4e81461025057806393072684146102805780639c2c1b2b1461029c576100ff565b8063240cf1fa116100d3578063240cf1fa1461019c578063622b2a3c146101b857806370ae92d2146101e85780637ad4b0a414610218576100ff565b8062c023da14610104578063022914a7146101205780630d44625b14610150578063123b5e9814610180575b600080fd5b61011e600480360381019061011991906114b9565b61033c565b005b61013a60048036038101906101359190611528565b61034d565b6040516101479190611564565b60405180910390f35b61016a6004803603810190610165919061157f565b610380565b60405161017791906115eb565b60405180910390f35b61019a6004803603810190610195919061166b565b6103b2565b005b6101b660048036038101906101b19190611729565b61045d565b005b6101d260048036038101906101cd919061157f565b610500565b6040516101df91906117bf565b60405180910390f35b61020260048036038101906101fd9190611528565b6105c6565b60405161020f91906115eb565b60405180910390f35b610232600480360381019061022d91906117da565b6105de565b005b61024e6004803603810190610249919061157f565b6105f1565b005b61026a60048036038101906102659190611528565b610602565b6040516102779190611564565b60405180910390f35b61029a6004803603810190610295919061185d565b6106ad565b005b6102b660048036038101906102b191906118ea565b610754565b005b6102d260048036038101906102cd919061198c565b6107ff565b005b6102ee60048036038101906102e991906119f3565b610812565b005b61030a60048036038101906103059190611a9c565b6108b9565b005b61032660048036038101906103219190611528565b6108c8565b60405161033391906115eb565b60405180910390f35b610348833384846108e0565b505050565b60006020528060005260406000206000915054906101000a900473ffffffffffffffffffffffffffffffffffffffff1681565b600160205282600052604060002060205281600052604060002060205280600052604060002060009250925050505481565b6000601960f81b600060f81b30600360006103cc8d610602565b73ffffffffffffffffffffffffffffffffffffffff1673ffffffffffffffffffffffffffffffffffffffff168152602001908152602001600020548b888888604051602001610422989796959493929190611ceb565b6040516020818303038152906040528051906020012090506104538861044b8a8a8a8a87610a38565b868686610b64565b5050505050505050565b6000601960f81b600060f81b30600360006104778b610602565b73ffffffffffffffffffffffffffffffffffffffff1673ffffffffffffffffffffffffffffffffffffffff1681526020019081526020016000205489866040516020016104c996959493929190611dd0565b6040516020818303038152906040528051906020012090506104f8866104f28888888887610a38565b84610cc7565b505050505050565b600080600160008673ffffffffffffffffffffffffffffffffffffffff1673ffffffffffffffffffffffffffffffffffffffff1681526020019081526020016000206000856040516020016105559190611e5a565b60405160208183030381529060405280519060200120815260200190815260200160002060008473ffffffffffffffffffffffffffffffffffffffff1673ffffffffffffffffffffffffffffffffffffffff1681526020019081526020016000205490504281119150509392505050565b60036020528060005260406000206000915090505481565b6105eb8433858585610b64565b50505050565b6105fd83338484610e96565b505050565b6000806000808473ffffffffffffffffffffffffffffffffffffffff1673ffffffffffffffffffffffffffffffffffffffff16815260200190815260200160002060009054906101000a900473ffffffffffffffffffffffffffffffffffffffff169050600073ffffffffffffffffffffffffffffffffffffffff168173ffffffffffffffffffffffffffffffffffffffff16146106a357809150506106a8565b829150505b919050565b6000601960f81b600060f81b30600360006106c78c610602565b73ffffffffffffffffffffffffffffffffffffffff1673ffffffffffffffffffffffffffffffffffffffff168152602001908152602001600020548a878760405160200161071b9796959493929190611ec1565b60405160208183030381529060405280519060200120905061074b876107448989898987610a38565b8585610e96565b50505050505050565b6000601960f81b600060f81b306003600061076e8d610602565b73ffffffffffffffffffffffffffffffffffffffff1673ffffffffffffffffffffffffffffffffffffffff168152602001908152602001600020548b8888886040516020016107c4989796959493929190611f99565b6040516020818303038152906040528051906020012090506107f5886107ed8a8a8a8a87610a38565b8686866110a5565b5050505050505050565b61080c84338585856110a5565b50505050565b6000601960f81b600060f81b306003600061082c8c610602565b73ffffffffffffffffffffffffffffffffffffffff1673ffffffffffffffffffffffffffffffffffffffff168152602001908152602001600020548a87876040516020016108809796959493929190612082565b6040516020818303038152906040528051906020012090506108b0876108a98989898987610a38565b85856108e0565b50505050505050565b6108c4823383610cc7565b5050565b60026020528060005260406000206000915090505481565b83836108eb82610602565b73ffffffffffffffffffffffffffffffffffffffff168173ffffffffffffffffffffffffffffffffffffffff1614610958576040517f08c379a000000000000000000000000000000000000000000000000000000000815260040161094f90612167565b60405180910390fd5b8573ffffffffffffffffffffffffffffffffffffffff167f18ab6b2ae3d64306c00ce663125f2bd680e441a098de1635bd7ad8b0d44965e485856000600260008c73ffffffffffffffffffffffffffffffffffffffff1673ffffffffffffffffffffffffffffffffffffffff168152602001908152602001600020546040516109e4949392919061220c565b60405180910390a243600260008873ffffffffffffffffffffffffffffffffffffffff1673ffffffffffffffffffffffffffffffffffffffff16815260200190815260200160002081905550505050505050565b60008060018387878760405160008152602001604052604051610a5e9493929190612267565b6020604051602081039080840390855afa158015610a80573d6000803e3d6000fd5b505050602060405103519050610a9587610602565b73ffffffffffffffffffffffffffffffffffffffff168173ffffffffffffffffffffffffffffffffffffffff1614610b02576040517f08c379a0000000000000000000000000000000000000000000000000000000008152600401610af9906122f8565b60405180910390fd5b600360008273ffffffffffffffffffffffffffffffffffffffff1673ffffffffffffffffffffffffffffffffffffffff1681526020019081526020016000206000815480929190610b5290612347565b91905055508091505095945050505050565b8484610b6f82610602565b73ffffffffffffffffffffffffffffffffffffffff168173ffffffffffffffffffffffffffffffffffffffff1614610bdc576040517f08c379a0000000000000000000000000000000000000000000000000000000008152600401610bd390612167565b60405180910390fd5b8673ffffffffffffffffffffffffffffffffffffffff167f18ab6b2ae3d64306c00ce663125f2bd680e441a098de1635bd7ad8b0d44965e486868642610c22919061238f565b600260008d73ffffffffffffffffffffffffffffffffffffffff1673ffffffffffffffffffffffffffffffffffffffff16815260200190815260200160002054604051610c7294939291906123e5565b60405180910390a243600260008973ffffffffffffffffffffffffffffffffffffffff1673ffffffffffffffffffffffffffffffffffffffff1681526020019081526020016000208190555050505050505050565b8282610cd282610602565b73ffffffffffffffffffffffffffffffffffffffff168173ffffffffffffffffffffffffffffffffffffffff1614610d3f576040517f08c379a0000000000000000000000000000000000000000000000000000000008152600401610d3690612167565b60405180910390fd5b826000808773ffffffffffffffffffffffffffffffffffffffff1673ffffffffffffffffffffffffffffffffffffffff16815260200190815260200160002060006101000a81548173ffffffffffffffffffffffffffffffffffffffff021916908373ffffffffffffffffffffffffffffffffffffffff1602179055508473ffffffffffffffffffffffffffffffffffffffff167f38a5a6e68f30ed1ab45860a4afb34bcb2fc00f22ca462d249b8a8d40cda6f7a384600260008973ffffffffffffffffffffffffffffffffffffffff1673ffffffffffffffffffffffffffffffffffffffff16815260200190815260200160002054604051610e43929190612431565b60405180910390a243600260008773ffffffffffffffffffffffffffffffffffffffff1673ffffffffffffffffffffffffffffffffffffffff168152602001908152602001600020819055505050505050565b8383610ea182610602565b73ffffffffffffffffffffffffffffffffffffffff168173ffffffffffffffffffffffffffffffffffffffff1614610f0e576040517f08c379a0000000000000000000000000000000000000000000000000000000008152600401610f0590612167565b60405180910390fd5b42600160008873ffffffffffffffffffffffffffffffffffffffff1673ffffffffffffffffffffffffffffffffffffffff168152602001908152602001600020600086604051602001610f619190611e5a565b60405160208183030381529060405280519060200120815260200190815260200160002060008573ffffffffffffffffffffffffffffffffffffffff1673ffffffffffffffffffffffffffffffffffffffff168152602001908152602001600020819055508573ffffffffffffffffffffffffffffffffffffffff167f5a5084339536bcab65f20799fcc58724588145ca054bd2be626174b27ba156f7858542600260008c73ffffffffffffffffffffffffffffffffffffffff1673ffffffffffffffffffffffffffffffffffffffff16815260200190815260200160002054604051611051949392919061245a565b60405180910390a243600260008873ffffffffffffffffffffffffffffffffffffffff1673ffffffffffffffffffffffffffffffffffffffff16815260200190815260200160002081905550505050505050565b84846110b082610602565b73ffffffffffffffffffffffffffffffffffffffff168173ffffffffffffffffffffffffffffffffffffffff161461111d576040517f08c379a000000000000000000000000000000000000000000000000000000000815260040161111490612167565b60405180910390fd5b8242611129919061238f565b600160008973ffffffffffffffffffffffffffffffffffffffff1673ffffffffffffffffffffffffffffffffffffffff16815260200190815260200160002060008760405160200161117b9190611e5a565b60405160208183030381529060405280519060200120815260200190815260200160002060008673ffffffffffffffffffffffffffffffffffffffff1673ffffffffffffffffffffffffffffffffffffffff168152602001908152602001600020819055508673ffffffffffffffffffffffffffffffffffffffff167f5a5084339536bcab65f20799fcc58724588145ca054bd2be626174b27ba156f786868642611226919061238f565b600260008d73ffffffffffffffffffffffffffffffffffffffff1673ffffffffffffffffffffffffffffffffffffffff16815260200190815260200160002054604051611276949392919061245a565b60405180910390a243600260008973ffffffffffffffffffffffffffffffffffffffff1673ffffffffffffffffffffffffffffffffffffffff1681526020019081526020016000208190555050505050505050565b6000604051905090565b600080fd5b600080fd5b600073ffffffffffffffffffffffffffffffffffffffff82169050919050565b600061130a826112df565b9050919050565b61131a816112ff565b811461132557600080fd5b50565b60008135905061133781611311565b92915050565b6000819050919050565b6113508161133d565b811461135b57600080fd5b50565b60008135905061136d81611347565b92915050565b600080fd5b600080fd5b6000601f19601f8301169050919050565b7f4e487b7100000000000000000000000000000000000000000000000000000000600052604160045260246000fd5b6113c68261137d565b810181811067ffffffffffffffff821117156113e5576113e461138e565b5b80604052505050565b60006113f86112cb565b905061140482826113bd565b919050565b600067ffffffffffffffff8211156114245761142361138e565b5b61142d8261137d565b9050602081019050919050565b82818337600083830152505050565b600061145c61145784611409565b6113ee565b90508281526020810184848401111561147857611477611378565b5b61148384828561143a565b509392505050565b600082601f8301126114a05761149f611373565b5b81356114b0848260208601611449565b91505092915050565b6000806000606084860312156114d2576114d16112d5565b5b60006114e086828701611328565b93505060206114f18682870161135e565b925050604084013567ffffffffffffffff811115611512576115116112da565b5b61151e8682870161148b565b9150509250925092565b60006020828403121561153e5761153d6112d5565b5b600061154c84828501611328565b91505092915050565b61155e816112ff565b82525050565b60006020820190506115796000830184611555565b92915050565b600080600060608486031215611598576115976112d5565b5b60006115a686828701611328565b93505060206115b78682870161135e565b92505060406115c886828701611328565b9150509250925092565b6000819050919050565b6115e5816115d2565b82525050565b600060208201905061160060008301846115dc565b92915050565b600060ff82169050919050565b61161c81611606565b811461162757600080fd5b50565b60008135905061163981611613565b92915050565b611648816115d2565b811461165357600080fd5b50565b6000813590506116658161163f565b92915050565b600080600080600080600060e0888a03121561168a576116896112d5565b5b60006116988a828b01611328565b97505060206116a98a828b0161162a565b96505060406116ba8a828b0161135e565b95505060606116cb8a828b0161135e565b94505060806116dc8a828b0161135e565b93505060a088013567ffffffffffffffff8111156116fd576116fc6112da565b5b6117098a828b0161148b565b92505060c061171a8a828b01611656565b91505092959891949750929550565b600080600080600060a08688031215611745576117446112d5565b5b600061175388828901611328565b95505060206117648882890161162a565b94505060406117758882890161135e565b93505060606117868882890161135e565b925050608061179788828901611328565b9150509295509295909350565b60008115159050919050565b6117b9816117a4565b82525050565b60006020820190506117d460008301846117b0565b92915050565b600080600080608085870312156117f4576117f36112d5565b5b600061180287828801611328565b94505060206118138782880161135e565b935050604085013567ffffffffffffffff811115611834576118336112da565b5b6118408782880161148b565b925050606061185187828801611656565b91505092959194509250565b60008060008060008060c0878903121561187a576118796112d5565b5b600061188889828a01611328565b965050602061189989828a0161162a565b95505060406118aa89828a0161135e565b94505060606118bb89828a0161135e565b93505060806118cc89828a0161135e565b92505060a06118dd89828a01611328565b9150509295509295509295565b600080600080600080600060e0888a031215611909576119086112d5565b5b60006119178a828b01611328565b97505060206119288a828b0161162a565b96505060406119398a828b0161135e565b955050606061194a8a828b0161135e565b945050608061195b8a828b0161135e565b93505060a061196c8a828b01611328565b92505060c061197d8a828b01611656565b91505092959891949750929550565b600080600080608085870312156119a6576119a56112d5565b5b60006119b487828801611328565b94505060206119c58782880161135e565b93505060406119d687828801611328565b92505060606119e787828801611656565b91505092959194509250565b60008060008060008060c08789031215611a1057611a0f6112d5565b5b6000611a1e89828a01611328565b9650506020611a2f89828a0161162a565b9550506040611a4089828a0161135e565b9450506060611a5189828a0161135e565b9350506080611a6289828a0161135e565b92505060a087013567ffffffffffffffff811115611a8357611a826112da565b5b611a8f89828a0161148b565b9150509295509295509295565b60008060408385031215611ab357611ab26112d5565b5b6000611ac185828601611328565b9250506020611ad285828601611328565b9150509250929050565b60007fff0000000000000000000000000000000000000000000000000000000000000082169050919050565b6000819050919050565b611b23611b1e82611adc565b611b08565b82525050565b6000819050919050565b6000611b4e611b49611b44846112df565b611b29565b6112df565b9050919050565b6000611b6082611b33565b9050919050565b6000611b7282611b55565b9050919050565b60008160601b9050919050565b6000611b9182611b79565b9050919050565b6000611ba382611b86565b9050919050565b611bbb611bb682611b67565b611b98565b82525050565b6000819050919050565b611bdc611bd7826115d2565b611bc1565b82525050565b611bf3611bee826112ff565b611b98565b82525050565b600081905092915050565b7f7365744174747269627574650000000000000000000000000000000000000000600082015250565b6000611c3a600c83611bf9565b9150611c4582611c04565b600c82019050919050565b6000819050919050565b611c6b611c668261133d565b611c50565b82525050565b600081519050919050565b600081905092915050565b60005b83811015611ca5578082015181840152602081019050611c8a565b83811115611cb4576000848401525b50505050565b6000611cc582611c71565b611ccf8185611c7c565b9350611cdf818560208601611c87565b80840191505092915050565b6000611cf7828b611b12565b600182019150611d07828a611b12565b600182019150611d178289611baa565b601482019150611d278288611bcb565b602082019150611d378287611be2565b601482019150611d4682611c2d565b9150611d528286611c5a565b602082019150611d628285611cba565b9150611d6e8284611bcb565b6020820191508190509998505050505050505050565b7f6368616e67654f776e6572000000000000000000000000000000000000000000600082015250565b6000611dba600b83611bf9565b9150611dc582611d84565b600b82019050919050565b6000611ddc8289611b12565b600182019150611dec8288611b12565b600182019150611dfc8287611baa565b601482019150611e0c8286611bcb565b602082019150611e1c8285611be2565b601482019150611e2b82611dad565b9150611e378284611be2565b601482019150819050979650505050505050565b611e548161133d565b82525050565b6000602082019050611e6f6000830184611e4b565b92915050565b7f7265766f6b6544656c6567617465000000000000000000000000000000000000600082015250565b6000611eab600e83611bf9565b9150611eb682611e75565b600e82019050919050565b6000611ecd828a611b12565b600182019150611edd8289611b12565b600182019150611eed8288611baa565b601482019150611efd8287611bcb565b602082019150611f0d8286611be2565b601482019150611f1c82611e9e565b9150611f288285611c5a565b602082019150611f388284611be2565b60148201915081905098975050505050505050565b7f61646444656c6567617465000000000000000000000000000000000000000000600082015250565b6000611f83600b83611bf9565b9150611f8e82611f4d565b600b82019050919050565b6000611fa5828b611b12565b600182019150611fb5828a611b12565b600182019150611fc58289611baa565b601482019150611fd58288611bcb565b602082019150611fe58287611be2565b601482019150611ff482611f76565b91506120008286611c5a565b6020820191506120108285611be2565b6014820191506120208284611bcb565b6020820191508190509998505050505050505050565b7f7265766f6b654174747269627574650000000000000000000000000000000000600082015250565b600061206c600f83611bf9565b915061207782612036565b600f82019050919050565b600061208e828a611b12565b60018201915061209e8289611b12565b6001820191506120ae8288611baa565b6014820191506120be8287611bcb565b6020820191506120ce8286611be2565b6014820191506120dd8261205f565b91506120e98285611c5a565b6020820191506120f98284611cba565b915081905098975050505050505050565b600082825260208201905092915050565b7f6261645f6163746f720000000000000000000000000000000000000000000000600082015250565b600061215160098361210a565b915061215c8261211b565b602082019050919050565b6000602082019050818103600083015261218081612144565b9050919050565b600082825260208201905092915050565b60006121a382611c71565b6121ad8185612187565b93506121bd818560208601611c87565b6121c68161137d565b840191505092915050565b6000819050919050565b60006121f66121f16121ec846121d1565b611b29565b6115d2565b9050919050565b612206816121db565b82525050565b60006080820190506122216000830187611e4b565b81810360208301526122338186612198565b905061224260408301856121fd565b61224f60608301846115dc565b95945050505050565b61226181611606565b82525050565b600060808201905061227c6000830187611e4b565b6122896020830186612258565b6122966040830185611e4b565b6122a36060830184611e4b565b95945050505050565b7f6261645f7369676e617475726500000000000000000000000000000000000000600082015250565b60006122e2600d8361210a565b91506122ed826122ac565b602082019050919050565b60006020820190508181036000830152612311816122d5565b9050919050565b7f4e487b7100000000000000000000000000000000000000000000000000000000600052601160045260246000fd5b6000612352826115d2565b91507fffffffffffffffffffffffffffffffffffffffffffffffffffffffffffffffff820361238457612383612318565b5b600182019050919050565b600061239a826115d2565b91506123a5836115d2565b9250827fffffffffffffffffffffffffffffffffffffffffffffffffffffffffffffffff038211156123da576123d9612318565b5b828201905092915050565b60006080820190506123fa6000830187611e4b565b818103602083015261240c8186612198565b905061241b60408301856115dc565b61242860608301846115dc565b95945050505050565b60006040820190506124466000830185611555565b61245360208301846115dc565b9392505050565b600060808201905061246f6000830187611e4b565b61247c6020830186611555565b61248960408301856115dc565b61249660608301846115dc565b9594505050505056fea2646970667358221220be39575062042f10b01a5ec325f134e08e8c78998d78315671203d4ee620204e64736f6c634300080e0033",
          "opcodes": "PUSH1 0x80 PUSH1 0x40 MSTORE CALLVALUE DUP1 ISZERO PUSH2 0x10 JUMPI PUSH1 0x0 DUP1 REVERT JUMPDEST POP PUSH2 0x24D5 DUP1 PUSH2 0x20 PUSH1 0x0 CODECOPY PUSH1 0x0 RETURN INVALID PUSH1 0x80 PUSH1 0x40 MSTORE CALLVALUE DUP1 ISZERO PUSH2 0x10 JUMPI PUSH1 0x0 DUP1 REVERT JUMPDEST POP PUSH1 0x4 CALLDATASIZE LT PUSH2 0xFF JUMPI PUSH1 0x0 CALLDATALOAD PUSH1 0xE0 SHR DUP1 PUSH4 0x80B29F7C GT PUSH2 0x97 JUMPI DUP1 PUSH4 0xA7068D66 GT PUSH2 0x66 JUMPI DUP1 PUSH4 0xA7068D66 EQ PUSH2 0x2B8 JUMPI DUP1 PUSH4 0xE476AF5C EQ PUSH2 0x2D4 JUMPI DUP1 PUSH4 0xF00D4B5D EQ PUSH2 0x2F0 JUMPI DUP1 PUSH4 0xF96D0F9F EQ PUSH2 0x30C JUMPI PUSH2 0xFF JUMP JUMPDEST DUP1 PUSH4 0x80B29F7C EQ PUSH2 0x234 JUMPI DUP1 PUSH4 0x8733D4E8 EQ PUSH2 0x250 JUMPI DUP1 PUSH4 0x93072684 EQ PUSH2 0x280 JUMPI DUP1 PUSH4 0x9C2C1B2B EQ PUSH2 0x29C JUMPI PUSH2 0xFF JUMP JUMPDEST DUP1 PUSH4 0x240CF1FA GT PUSH2 0xD3 JUMPI DUP1 PUSH4 0x240CF1FA EQ PUSH2 0x19C JUMPI DUP1 PUSH4 0x622B2A3C EQ PUSH2 0x1B8 JUMPI DUP1 PUSH4 0x70AE92D2 EQ PUSH2 0x1E8 JUMPI DUP1 PUSH4 0x7AD4B0A4 EQ PUSH2 0x218 JUMPI PUSH2 0xFF JUMP JUMPDEST DUP1 PUSH3 0xC023DA EQ PUSH2 0x104 JUMPI DUP1 PUSH4 0x22914A7 EQ PUSH2 0x120 JUMPI DUP1 PUSH4 0xD44625B EQ PUSH2 0x150 JUMPI DUP1 PUSH4 0x123B5E98 EQ PUSH2 0x180 JUMPI JUMPDEST PUSH1 0x0 DUP1 REVERT JUMPDEST PUSH2 0x11E PUSH1 0x4 DUP1 CALLDATASIZE SUB DUP2 ADD SWAP1 PUSH2 0x119 SWAP2 SWAP1 PUSH2 0x14B9 JUMP JUMPDEST PUSH2 0x33C JUMP JUMPDEST STOP JUMPDEST PUSH2 0x13A PUSH1 0x4 DUP1 CALLDATASIZE SUB DUP2 ADD SWAP1 PUSH2 0x135 SWAP2 SWAP1 PUSH2 0x1528 JUMP JUMPDEST PUSH2 0x34D JUMP JUMPDEST PUSH1 0x40 MLOAD PUSH2 0x147 SWAP2 SWAP1 PUSH2 0x1564 JUMP JUMPDEST PUSH1 0x40 MLOAD DUP1 SWAP2 SUB SWAP1 RETURN JUMPDEST PUSH2 0x16A PUSH1 0x4 DUP1 CALLDATASIZE SUB DUP2 ADD SWAP1 PUSH2 0x165 SWAP2 SWAP1 PUSH2 0x157F JUMP JUMPDEST PUSH2 0x380 JUMP JUMPDEST PUSH1 0x40 MLOAD PUSH2 0x177 SWAP2 SWAP1 PUSH2 0x15EB JUMP JUMPDEST PUSH1 0x40 MLOAD DUP1 SWAP2 SUB SWAP1 RETURN JUMPDEST PUSH2 0x19A PUSH1 0x4 DUP1 CALLDATASIZE SUB DUP2 ADD SWAP1 PUSH2 0x195 SWAP2 SWAP1 PUSH2 0x166B JUMP JUMPDEST PUSH2 0x3B2 JUMP JUMPDEST STOP JUMPDEST PUSH2 0x1B6 PUSH1 0x4 DUP1 CALLDATASIZE SUB DUP2 ADD SWAP1 PUSH2 0x1B1 SWAP2 SWAP1 PUSH2 0x1729 JUMP JUMPDEST PUSH2 0x45D JUMP JUMPDEST STOP JUMPDEST PUSH2 0x1D2 PUSH1 0x4 DUP1 CALLDATASIZE SUB DUP2 ADD SWAP1 PUSH2 0x1CD SWAP2 SWAP1 PUSH2 0x157F JUMP JUMPDEST PUSH2 0x500 JUMP JUMPDEST PUSH1 0x40 MLOAD PUSH2 0x1DF SWAP2 SWAP1 PUSH2 0x17BF JUMP JUMPDEST PUSH1 0x40 MLOAD DUP1 SWAP2 SUB SWAP1 RETURN JUMPDEST PUSH2 0x202 PUSH1 0x4 DUP1 CALLDATASIZE SUB DUP2 ADD SWAP1 PUSH2 0x1FD SWAP2 SWAP1 PUSH2 0x1528 JUMP JUMPDEST PUSH2 0x5C6 JUMP JUMPDEST PUSH1 0x40 MLOAD PUSH2 0x20F SWAP2 SWAP1 PUSH2 0x15EB JUMP JUMPDEST PUSH1 0x40 MLOAD DUP1 SWAP2 SUB SWAP1 RETURN JUMPDEST PUSH2 0x232 PUSH1 0x4 DUP1 CALLDATASIZE SUB DUP2 ADD SWAP1 PUSH2 0x22D SWAP2 SWAP1 PUSH2 0x17DA JUMP JUMPDEST PUSH2 0x5DE JUMP JUMPDEST STOP JUMPDEST PUSH2 0x24E PUSH1 0x4 DUP1 CALLDATASIZE SUB DUP2 ADD SWAP1 PUSH2 0x249 SWAP2 SWAP1 PUSH2 0x157F JUMP JUMPDEST PUSH2 0x5F1 JUMP JUMPDEST STOP JUMPDEST PUSH2 0x26A PUSH1 0x4 DUP1 CALLDATASIZE SUB DUP2 ADD SWAP1 PUSH2 0x265 SWAP2 SWAP1 PUSH2 0x1528 JUMP JUMPDEST PUSH2 0x602 JUMP JUMPDEST PUSH1 0x40 MLOAD PUSH2 0x277 SWAP2 SWAP1 PUSH2 0x1564 JUMP JUMPDEST PUSH1 0x40 MLOAD DUP1 SWAP2 SUB SWAP1 RETURN JUMPDEST PUSH2 0x29A PUSH1 0x4 DUP1 CALLDATASIZE SUB DUP2 ADD SWAP1 PUSH2 0x295 SWAP2 SWAP1 PUSH2 0x185D JUMP JUMPDEST PUSH2 0x6AD JUMP JUMPDEST STOP JUMPDEST PUSH2 0x2B6 PUSH1 0x4 DUP1 CALLDATASIZE SUB DUP2 ADD SWAP1 PUSH2 0x2B1 SWAP2 SWAP1 PUSH2 0x18EA JUMP JUMPDEST PUSH2 0x754 JUMP JUMPDEST STOP JUMPDEST PUSH2 0x2D2 PUSH1 0x4 DUP1 CALLDATASIZE SUB DUP2 ADD SWAP1 PUSH2 0x2CD SWAP2 SWAP1 PUSH2 0x198C JUMP JUMPDEST PUSH2 0x7FF JUMP JUMPDEST STOP JUMPDEST PUSH2 0x2EE PUSH1 0x4 DUP1 CALLDATASIZE SUB DUP2 ADD SWAP1 PUSH2 0x2E9 SWAP2 SWAP1 PUSH2 0x19F3 JUMP JUMPDEST PUSH2 0x812 JUMP JUMPDEST STOP JUMPDEST PUSH2 0x30A PUSH1 0x4 DUP1 CALLDATASIZE SUB DUP2 ADD SWAP1 PUSH2 0x305 SWAP2 SWAP1 PUSH2 0x1A9C JUMP JUMPDEST PUSH2 0x8B9 JUMP JUMPDEST STOP JUMPDEST PUSH2 0x326 PUSH1 0x4 DUP1 CALLDATASIZE SUB DUP2 ADD SWAP1 PUSH2 0x321 SWAP2 SWAP1 PUSH2 0x1528 JUMP JUMPDEST PUSH2 0x8C8 JUMP JUMPDEST PUSH1 0x40 MLOAD PUSH2 0x333 SWAP2 SWAP1 PUSH2 0x15EB JUMP JUMPDEST PUSH1 0x40 MLOAD DUP1 SWAP2 SUB SWAP1 RETURN JUMPDEST PUSH2 0x348 DUP4 CALLER DUP5 DUP5 PUSH2 0x8E0 JUMP JUMPDEST POP POP POP JUMP JUMPDEST PUSH1 0x0 PUSH1 0x20 MSTORE DUP1 PUSH1 0x0 MSTORE PUSH1 0x40 PUSH1 0x0 KECCAK256 PUSH1 0x0 SWAP2 POP SLOAD SWAP1 PUSH2 0x100 EXP SWAP1 DIV PUSH20 0xFFFFFFFFFFFFFFFFFFFFFFFFFFFFFFFFFFFFFFFF AND DUP2 JUMP JUMPDEST PUSH1 0x1 PUSH1 0x20 MSTORE DUP3 PUSH1 0x0 MSTORE PUSH1 0x40 PUSH1 0x0 KECCAK256 PUSH1 0x20 MSTORE DUP2 PUSH1 0x0 MSTORE PUSH1 0x40 PUSH1 0x0 KECCAK256 PUSH1 0x20 MSTORE DUP1 PUSH1 0x0 MSTORE PUSH1 0x40 PUSH1 0x0 KECCAK256 PUSH1 0x0 SWAP3 POP SWAP3 POP POP POP SLOAD DUP2 JUMP JUMPDEST PUSH1 0x0 PUSH1 0x19 PUSH1 0xF8 SHL PUSH1 0x0 PUSH1 0xF8 SHL ADDRESS PUSH1 0x3 PUSH1 0x0 PUSH2 0x3CC DUP14 PUSH2 0x602 JUMP JUMPDEST PUSH20 0xFFFFFFFFFFFFFFFFFFFFFFFFFFFFFFFFFFFFFFFF AND PUSH20 0xFFFFFFFFFFFFFFFFFFFFFFFFFFFFFFFFFFFFFFFF AND DUP2 MSTORE PUSH1 0x20 ADD SWAP1 DUP2 MSTORE PUSH1 0x20 ADD PUSH1 0x0 KECCAK256 SLOAD DUP12 DUP9 DUP9 DUP9 PUSH1 0x40 MLOAD PUSH1 0x20 ADD PUSH2 0x422 SWAP9 SWAP8 SWAP7 SWAP6 SWAP5 SWAP4 SWAP3 SWAP2 SWAP1 PUSH2 0x1CEB JUMP JUMPDEST PUSH1 0x40 MLOAD PUSH1 0x20 DUP2 DUP4 SUB SUB DUP2 MSTORE SWAP1 PUSH1 0x40 MSTORE DUP1 MLOAD SWAP1 PUSH1 0x20 ADD KECCAK256 SWAP1 POP PUSH2 0x453 DUP9 PUSH2 0x44B DUP11 DUP11 DUP11 DUP11 DUP8 PUSH2 0xA38 JUMP JUMPDEST DUP7 DUP7 DUP7 PUSH2 0xB64 JUMP JUMPDEST POP POP POP POP POP POP POP POP JUMP JUMPDEST PUSH1 0x0 PUSH1 0x19 PUSH1 0xF8 SHL PUSH1 0x0 PUSH1 0xF8 SHL ADDRESS PUSH1 0x3 PUSH1 0x0 PUSH2 0x477 DUP12 PUSH2 0x602 JUMP JUMPDEST PUSH20 0xFFFFFFFFFFFFFFFFFFFFFFFFFFFFFFFFFFFFFFFF AND PUSH20 0xFFFFFFFFFFFFFFFFFFFFFFFFFFFFFFFFFFFFFFFF AND DUP2 MSTORE PUSH1 0x20 ADD SWAP1 DUP2 MSTORE PUSH1 0x20 ADD PUSH1 0x0 KECCAK256 SLOAD DUP10 DUP7 PUSH1 0x40 MLOAD PUSH1 0x20 ADD PUSH2 0x4C9 SWAP7 SWAP6 SWAP5 SWAP4 SWAP3 SWAP2 SWAP1 PUSH2 0x1DD0 JUMP JUMPDEST PUSH1 0x40 MLOAD PUSH1 0x20 DUP2 DUP4 SUB SUB DUP2 MSTORE SWAP1 PUSH1 0x40 MSTORE DUP1 MLOAD SWAP1 PUSH1 0x20 ADD KECCAK256 SWAP1 POP PUSH2 0x4F8 DUP7 PUSH2 0x4F2 DUP9 DUP9 DUP9 DUP9 DUP8 PUSH2 0xA38 JUMP JUMPDEST DUP5 PUSH2 0xCC7 JUMP JUMPDEST POP POP POP POP POP POP JUMP JUMPDEST PUSH1 0x0 DUP1 PUSH1 0x1 PUSH1 0x0 DUP7 PUSH20 0xFFFFFFFFFFFFFFFFFFFFFFFFFFFFFFFFFFFFFFFF AND PUSH20 0xFFFFFFFFFFFFFFFFFFFFFFFFFFFFFFFFFFFFFFFF AND DUP2 MSTORE PUSH1 0x20 ADD SWAP1 DUP2 MSTORE PUSH1 0x20 ADD PUSH1 0x0 KECCAK256 PUSH1 0x0 DUP6 PUSH1 0x40 MLOAD PUSH1 0x20 ADD PUSH2 0x555 SWAP2 SWAP1 PUSH2 0x1E5A JUMP JUMPDEST PUSH1 0x40 MLOAD PUSH1 0x20 DUP2 DUP4 SUB SUB DUP2 MSTORE SWAP1 PUSH1 0x40 MSTORE DUP1 MLOAD SWAP1 PUSH1 0x20 ADD KECCAK256 DUP2 MSTORE PUSH1 0x20 ADD SWAP1 DUP2 MSTORE PUSH1 0x20 ADD PUSH1 0x0 KECCAK256 PUSH1 0x0 DUP5 PUSH20 0xFFFFFFFFFFFFFFFFFFFFFFFFFFFFFFFFFFFFFFFF AND PUSH20 0xFFFFFFFFFFFFFFFFFFFFFFFFFFFFFFFFFFFFFFFF AND DUP2 MSTORE PUSH1 0x20 ADD SWAP1 DUP2 MSTORE PUSH1 0x20 ADD PUSH1 0x0 KECCAK256 SLOAD SWAP1 POP TIMESTAMP DUP2 GT SWAP2 POP POP SWAP4 SWAP3 POP POP POP JUMP JUMPDEST PUSH1 0x3 PUSH1 0x20 MSTORE DUP1 PUSH1 0x0 MSTORE PUSH1 0x40 PUSH1 0x0 KECCAK256 PUSH1 0x0 SWAP2 POP SWAP1 POP SLOAD DUP2 JUMP JUMPDEST PUSH2 0x5EB DUP5 CALLER DUP6 DUP6 DUP6 PUSH2 0xB64 JUMP JUMPDEST POP POP POP POP JUMP JUMPDEST PUSH2 0x5FD DUP4 CALLER DUP5 DUP5 PUSH2 0xE96 JUMP JUMPDEST POP POP POP JUMP JUMPDEST PUSH1 0x0 DUP1 PUSH1 0x0 DUP1 DUP5 PUSH20 0xFFFFFFFFFFFFFFFFFFFFFFFFFFFFFFFFFFFFFFFF AND PUSH20 0xFFFFFFFFFFFFFFFFFFFFFFFFFFFFFFFFFFFFFFFF AND DUP2 MSTORE PUSH1 0x20 ADD SWAP1 DUP2 MSTORE PUSH1 0x20 ADD PUSH1 0x0 KECCAK256 PUSH1 0x0 SWAP1 SLOAD SWAP1 PUSH2 0x100 EXP SWAP1 DIV PUSH20 0xFFFFFFFFFFFFFFFFFFFFFFFFFFFFFFFFFFFFFFFF AND SWAP1 POP PUSH1 0x0 PUSH20 0xFFFFFFFFFFFFFFFFFFFFFFFFFFFFFFFFFFFFFFFF AND DUP2 PUSH20 0xFFFFFFFFFFFFFFFFFFFFFFFFFFFFFFFFFFFFFFFF AND EQ PUSH2 0x6A3 JUMPI DUP1 SWAP2 POP POP PUSH2 0x6A8 JUMP JUMPDEST DUP3 SWAP2 POP POP JUMPDEST SWAP2 SWAP1 POP JUMP JUMPDEST PUSH1 0x0 PUSH1 0x19 PUSH1 0xF8 SHL PUSH1 0x0 PUSH1 0xF8 SHL ADDRESS PUSH1 0x3 PUSH1 0x0 PUSH2 0x6C7 DUP13 PUSH2 0x602 JUMP JUMPDEST PUSH20 0xFFFFFFFFFFFFFFFFFFFFFFFFFFFFFFFFFFFFFFFF AND PUSH20 0xFFFFFFFFFFFFFFFFFFFFFFFFFFFFFFFFFFFFFFFF AND DUP2 MSTORE PUSH1 0x20 ADD SWAP1 DUP2 MSTORE PUSH1 0x20 ADD PUSH1 0x0 KECCAK256 SLOAD DUP11 DUP8 DUP8 PUSH1 0x40 MLOAD PUSH1 0x20 ADD PUSH2 0x71B SWAP8 SWAP7 SWAP6 SWAP5 SWAP4 SWAP3 SWAP2 SWAP1 PUSH2 0x1EC1 JUMP JUMPDEST PUSH1 0x40 MLOAD PUSH1 0x20 DUP2 DUP4 SUB SUB DUP2 MSTORE SWAP1 PUSH1 0x40 MSTORE DUP1 MLOAD SWAP1 PUSH1 0x20 ADD KECCAK256 SWAP1 POP PUSH2 0x74B DUP8 PUSH2 0x744 DUP10 DUP10 DUP10 DUP10 DUP8 PUSH2 0xA38 JUMP JUMPDEST DUP6 DUP6 PUSH2 0xE96 JUMP JUMPDEST POP POP POP POP POP POP POP JUMP JUMPDEST PUSH1 0x0 PUSH1 0x19 PUSH1 0xF8 SHL PUSH1 0x0 PUSH1 0xF8 SHL ADDRESS PUSH1 0x3 PUSH1 0x0 PUSH2 0x76E DUP14 PUSH2 0x602 JUMP JUMPDEST PUSH20 0xFFFFFFFFFFFFFFFFFFFFFFFFFFFFFFFFFFFFFFFF AND PUSH20 0xFFFFFFFFFFFFFFFFFFFFFFFFFFFFFFFFFFFFFFFF AND DUP2 MSTORE PUSH1 0x20 ADD SWAP1 DUP2 MSTORE PUSH1 0x20 ADD PUSH1 0x0 KECCAK256 SLOAD DUP12 DUP9 DUP9 DUP9 PUSH1 0x40 MLOAD PUSH1 0x20 ADD PUSH2 0x7C4 SWAP9 SWAP8 SWAP7 SWAP6 SWAP5 SWAP4 SWAP3 SWAP2 SWAP1 PUSH2 0x1F99 JUMP JUMPDEST PUSH1 0x40 MLOAD PUSH1 0x20 DUP2 DUP4 SUB SUB DUP2 MSTORE SWAP1 PUSH1 0x40 MSTORE DUP1 MLOAD SWAP1 PUSH1 0x20 ADD KECCAK256 SWAP1 POP PUSH2 0x7F5 DUP9 PUSH2 0x7ED DUP11 DUP11 DUP11 DUP11 DUP8 PUSH2 0xA38 JUMP JUMPDEST DUP7 DUP7 DUP7 PUSH2 0x10A5 JUMP JUMPDEST POP POP POP POP POP POP POP POP JUMP JUMPDEST PUSH2 0x80C DUP5 CALLER DUP6 DUP6 DUP6 PUSH2 0x10A5 JUMP JUMPDEST POP POP POP POP JUMP JUMPDEST PUSH1 0x0 PUSH1 0x19 PUSH1 0xF8 SHL PUSH1 0x0 PUSH1 0xF8 SHL ADDRESS PUSH1 0x3 PUSH1 0x0 PUSH2 0x82C DUP13 PUSH2 0x602 JUMP JUMPDEST PUSH20 0xFFFFFFFFFFFFFFFFFFFFFFFFFFFFFFFFFFFFFFFF AND PUSH20 0xFFFFFFFFFFFFFFFFFFFFFFFFFFFFFFFFFFFFFFFF AND DUP2 MSTORE PUSH1 0x20 ADD SWAP1 DUP2 MSTORE PUSH1 0x20 ADD PUSH1 0x0 KECCAK256 SLOAD DUP11 DUP8 DUP8 PUSH1 0x40 MLOAD PUSH1 0x20 ADD PUSH2 0x880 SWAP8 SWAP7 SWAP6 SWAP5 SWAP4 SWAP3 SWAP2 SWAP1 PUSH2 0x2082 JUMP JUMPDEST PUSH1 0x40 MLOAD PUSH1 0x20 DUP2 DUP4 SUB SUB DUP2 MSTORE SWAP1 PUSH1 0x40 MSTORE DUP1 MLOAD SWAP1 PUSH1 0x20 ADD KECCAK256 SWAP1 POP PUSH2 0x8B0 DUP8 PUSH2 0x8A9 DUP10 DUP10 DUP10 DUP10 DUP8 PUSH2 0xA38 JUMP JUMPDEST DUP6 DUP6 PUSH2 0x8E0 JUMP JUMPDEST POP POP POP POP POP POP POP JUMP JUMPDEST PUSH2 0x8C4 DUP3 CALLER DUP4 PUSH2 0xCC7 JUMP JUMPDEST POP POP JUMP JUMPDEST PUSH1 0x2 PUSH1 0x20 MSTORE DUP1 PUSH1 0x0 MSTORE PUSH1 0x40 PUSH1 0x0 KECCAK256 PUSH1 0x0 SWAP2 POP SWAP1 POP SLOAD DUP2 JUMP JUMPDEST DUP4 DUP4 PUSH2 0x8EB DUP3 PUSH2 0x602 JUMP JUMPDEST PUSH20 0xFFFFFFFFFFFFFFFFFFFFFFFFFFFFFFFFFFFFFFFF AND DUP2 PUSH20 0xFFFFFFFFFFFFFFFFFFFFFFFFFFFFFFFFFFFFFFFF AND EQ PUSH2 0x958 JUMPI PUSH1 0x40 MLOAD PUSH32 0x8C379A000000000000000000000000000000000000000000000000000000000 DUP2 MSTORE PUSH1 0x4 ADD PUSH2 0x94F SWAP1 PUSH2 0x2167 JUMP JUMPDEST PUSH1 0x40 MLOAD DUP1 SWAP2 SUB SWAP1 REVERT JUMPDEST DUP6 PUSH20 0xFFFFFFFFFFFFFFFFFFFFFFFFFFFFFFFFFFFFFFFF AND PUSH32 0x18AB6B2AE3D64306C00CE663125F2BD680E441A098DE1635BD7AD8B0D44965E4 DUP6 DUP6 PUSH1 0x0 PUSH1 0x2 PUSH1 0x0 DUP13 PUSH20 0xFFFFFFFFFFFFFFFFFFFFFFFFFFFFFFFFFFFFFFFF AND PUSH20 0xFFFFFFFFFFFFFFFFFFFFFFFFFFFFFFFFFFFFFFFF AND DUP2 MSTORE PUSH1 0x20 ADD SWAP1 DUP2 MSTORE PUSH1 0x20 ADD PUSH1 0x0 KECCAK256 SLOAD PUSH1 0x40 MLOAD PUSH2 0x9E4 SWAP5 SWAP4 SWAP3 SWAP2 SWAP1 PUSH2 0x220C JUMP JUMPDEST PUSH1 0x40 MLOAD DUP1 SWAP2 SUB SWAP1 LOG2 NUMBER PUSH1 0x2 PUSH1 0x0 DUP9 PUSH20 0xFFFFFFFFFFFFFFFFFFFFFFFFFFFFFFFFFFFFFFFF AND PUSH20 0xFFFFFFFFFFFFFFFFFFFFFFFFFFFFFFFFFFFFFFFF AND DUP2 MSTORE PUSH1 0x20 ADD SWAP1 DUP2 MSTORE PUSH1 0x20 ADD PUSH1 0x0 KECCAK256 DUP2 SWAP1 SSTORE POP POP POP POP POP POP POP JUMP JUMPDEST PUSH1 0x0 DUP1 PUSH1 0x1 DUP4 DUP8 DUP8 DUP8 PUSH1 0x40 MLOAD PUSH1 0x0 DUP2 MSTORE PUSH1 0x20 ADD PUSH1 0x40 MSTORE PUSH1 0x40 MLOAD PUSH2 0xA5E SWAP5 SWAP4 SWAP3 SWAP2 SWAP1 PUSH2 0x2267 JUMP JUMPDEST PUSH1 0x20 PUSH1 0x40 MLOAD PUSH1 0x20 DUP2 SUB SWAP1 DUP1 DUP5 SUB SWAP1 DUP6 GAS STATICCALL ISZERO DUP1 ISZERO PUSH2 0xA80 JUMPI RETURNDATASIZE PUSH1 0x0 DUP1 RETURNDATACOPY RETURNDATASIZE PUSH1 0x0 REVERT JUMPDEST POP POP POP PUSH1 0x20 PUSH1 0x40 MLOAD SUB MLOAD SWAP1 POP PUSH2 0xA95 DUP8 PUSH2 0x602 JUMP JUMPDEST PUSH20 0xFFFFFFFFFFFFFFFFFFFFFFFFFFFFFFFFFFFFFFFF AND DUP2 PUSH20 0xFFFFFFFFFFFFFFFFFFFFFFFFFFFFFFFFFFFFFFFF AND EQ PUSH2 0xB02 JUMPI PUSH1 0x40 MLOAD PUSH32 0x8C379A000000000000000000000000000000000000000000000000000000000 DUP2 MSTORE PUSH1 0x4 ADD PUSH2 0xAF9 SWAP1 PUSH2 0x22F8 JUMP JUMPDEST PUSH1 0x40 MLOAD DUP1 SWAP2 SUB SWAP1 REVERT JUMPDEST PUSH1 0x3 PUSH1 0x0 DUP3 PUSH20 0xFFFFFFFFFFFFFFFFFFFFFFFFFFFFFFFFFFFFFFFF AND PUSH20 0xFFFFFFFFFFFFFFFFFFFFFFFFFFFFFFFFFFFFFFFF AND DUP2 MSTORE PUSH1 0x20 ADD SWAP1 DUP2 MSTORE PUSH1 0x20 ADD PUSH1 0x0 KECCAK256 PUSH1 0x0 DUP2 SLOAD DUP1 SWAP3 SWAP2 SWAP1 PUSH2 0xB52 SWAP1 PUSH2 0x2347 JUMP JUMPDEST SWAP2 SWAP1 POP SSTORE POP DUP1 SWAP2 POP POP SWAP6 SWAP5 POP POP POP POP POP JUMP JUMPDEST DUP5 DUP5 PUSH2 0xB6F DUP3 PUSH2 0x602 JUMP JUMPDEST PUSH20 0xFFFFFFFFFFFFFFFFFFFFFFFFFFFFFFFFFFFFFFFF AND DUP2 PUSH20 0xFFFFFFFFFFFFFFFFFFFFFFFFFFFFFFFFFFFFFFFF AND EQ PUSH2 0xBDC JUMPI PUSH1 0x40 MLOAD PUSH32 0x8C379A000000000000000000000000000000000000000000000000000000000 DUP2 MSTORE PUSH1 0x4 ADD PUSH2 0xBD3 SWAP1 PUSH2 0x2167 JUMP JUMPDEST PUSH1 0x40 MLOAD DUP1 SWAP2 SUB SWAP1 REVERT JUMPDEST DUP7 PUSH20 0xFFFFFFFFFFFFFFFFFFFFFFFFFFFFFFFFFFFFFFFF AND PUSH32 0x18AB6B2AE3D64306C00CE663125F2BD680E441A098DE1635BD7AD8B0D44965E4 DUP7 DUP7 DUP7 TIMESTAMP PUSH2 0xC22 SWAP2 SWAP1 PUSH2 0x238F JUMP JUMPDEST PUSH1 0x2 PUSH1 0x0 DUP14 PUSH20 0xFFFFFFFFFFFFFFFFFFFFFFFFFFFFFFFFFFFFFFFF AND PUSH20 0xFFFFFFFFFFFFFFFFFFFFFFFFFFFFFFFFFFFFFFFF AND DUP2 MSTORE PUSH1 0x20 ADD SWAP1 DUP2 MSTORE PUSH1 0x20 ADD PUSH1 0x0 KECCAK256 SLOAD PUSH1 0x40 MLOAD PUSH2 0xC72 SWAP5 SWAP4 SWAP3 SWAP2 SWAP1 PUSH2 0x23E5 JUMP JUMPDEST PUSH1 0x40 MLOAD DUP1 SWAP2 SUB SWAP1 LOG2 NUMBER PUSH1 0x2 PUSH1 0x0 DUP10 PUSH20 0xFFFFFFFFFFFFFFFFFFFFFFFFFFFFFFFFFFFFFFFF AND PUSH20 0xFFFFFFFFFFFFFFFFFFFFFFFFFFFFFFFFFFFFFFFF AND DUP2 MSTORE PUSH1 0x20 ADD SWAP1 DUP2 MSTORE PUSH1 0x20 ADD PUSH1 0x0 KECCAK256 DUP2 SWAP1 SSTORE POP POP POP POP POP POP POP POP JUMP JUMPDEST DUP3 DUP3 PUSH2 0xCD2 DUP3 PUSH2 0x602 JUMP JUMPDEST PUSH20 0xFFFFFFFFFFFFFFFFFFFFFFFFFFFFFFFFFFFFFFFF AND DUP2 PUSH20 0xFFFFFFFFFFFFFFFFFFFFFFFFFFFFFFFFFFFFFFFF AND EQ PUSH2 0xD3F JUMPI PUSH1 0x40 MLOAD PUSH32 0x8C379A000000000000000000000000000000000000000000000000000000000 DUP2 MSTORE PUSH1 0x4 ADD PUSH2 0xD36 SWAP1 PUSH2 0x2167 JUMP JUMPDEST PUSH1 0x40 MLOAD DUP1 SWAP2 SUB SWAP1 REVERT JUMPDEST DUP3 PUSH1 0x0 DUP1 DUP8 PUSH20 0xFFFFFFFFFFFFFFFFFFFFFFFFFFFFFFFFFFFFFFFF AND PUSH20 0xFFFFFFFFFFFFFFFFFFFFFFFFFFFFFFFFFFFFFFFF AND DUP2 MSTORE PUSH1 0x20 ADD SWAP1 DUP2 MSTORE PUSH1 0x20 ADD PUSH1 0x0 KECCAK256 PUSH1 0x0 PUSH2 0x100 EXP DUP2 SLOAD DUP2 PUSH20 0xFFFFFFFFFFFFFFFFFFFFFFFFFFFFFFFFFFFFFFFF MUL NOT AND SWAP1 DUP4 PUSH20 0xFFFFFFFFFFFFFFFFFFFFFFFFFFFFFFFFFFFFFFFF AND MUL OR SWAP1 SSTORE POP DUP5 PUSH20 0xFFFFFFFFFFFFFFFFFFFFFFFFFFFFFFFFFFFFFFFF AND PUSH32 0x38A5A6E68F30ED1AB45860A4AFB34BCB2FC00F22CA462D249B8A8D40CDA6F7A3 DUP5 PUSH1 0x2 PUSH1 0x0 DUP10 PUSH20 0xFFFFFFFFFFFFFFFFFFFFFFFFFFFFFFFFFFFFFFFF AND PUSH20 0xFFFFFFFFFFFFFFFFFFFFFFFFFFFFFFFFFFFFFFFF AND DUP2 MSTORE PUSH1 0x20 ADD SWAP1 DUP2 MSTORE PUSH1 0x20 ADD PUSH1 0x0 KECCAK256 SLOAD PUSH1 0x40 MLOAD PUSH2 0xE43 SWAP3 SWAP2 SWAP1 PUSH2 0x2431 JUMP JUMPDEST PUSH1 0x40 MLOAD DUP1 SWAP2 SUB SWAP1 LOG2 NUMBER PUSH1 0x2 PUSH1 0x0 DUP8 PUSH20 0xFFFFFFFFFFFFFFFFFFFFFFFFFFFFFFFFFFFFFFFF AND PUSH20 0xFFFFFFFFFFFFFFFFFFFFFFFFFFFFFFFFFFFFFFFF AND DUP2 MSTORE PUSH1 0x20 ADD SWAP1 DUP2 MSTORE PUSH1 0x20 ADD PUSH1 0x0 KECCAK256 DUP2 SWAP1 SSTORE POP POP POP POP POP POP JUMP JUMPDEST DUP4 DUP4 PUSH2 0xEA1 DUP3 PUSH2 0x602 JUMP JUMPDEST PUSH20 0xFFFFFFFFFFFFFFFFFFFFFFFFFFFFFFFFFFFFFFFF AND DUP2 PUSH20 0xFFFFFFFFFFFFFFFFFFFFFFFFFFFFFFFFFFFFFFFF AND EQ PUSH2 0xF0E JUMPI PUSH1 0x40 MLOAD PUSH32 0x8C379A000000000000000000000000000000000000000000000000000000000 DUP2 MSTORE PUSH1 0x4 ADD PUSH2 0xF05 SWAP1 PUSH2 0x2167 JUMP JUMPDEST PUSH1 0x40 MLOAD DUP1 SWAP2 SUB SWAP1 REVERT JUMPDEST TIMESTAMP PUSH1 0x1 PUSH1 0x0 DUP9 PUSH20 0xFFFFFFFFFFFFFFFFFFFFFFFFFFFFFFFFFFFFFFFF AND PUSH20 0xFFFFFFFFFFFFFFFFFFFFFFFFFFFFFFFFFFFFFFFF AND DUP2 MSTORE PUSH1 0x20 ADD SWAP1 DUP2 MSTORE PUSH1 0x20 ADD PUSH1 0x0 KECCAK256 PUSH1 0x0 DUP7 PUSH1 0x40 MLOAD PUSH1 0x20 ADD PUSH2 0xF61 SWAP2 SWAP1 PUSH2 0x1E5A JUMP JUMPDEST PUSH1 0x40 MLOAD PUSH1 0x20 DUP2 DUP4 SUB SUB DUP2 MSTORE SWAP1 PUSH1 0x40 MSTORE DUP1 MLOAD SWAP1 PUSH1 0x20 ADD KECCAK256 DUP2 MSTORE PUSH1 0x20 ADD SWAP1 DUP2 MSTORE PUSH1 0x20 ADD PUSH1 0x0 KECCAK256 PUSH1 0x0 DUP6 PUSH20 0xFFFFFFFFFFFFFFFFFFFFFFFFFFFFFFFFFFFFFFFF AND PUSH20 0xFFFFFFFFFFFFFFFFFFFFFFFFFFFFFFFFFFFFFFFF AND DUP2 MSTORE PUSH1 0x20 ADD SWAP1 DUP2 MSTORE PUSH1 0x20 ADD PUSH1 0x0 KECCAK256 DUP2 SWAP1 SSTORE POP DUP6 PUSH20 0xFFFFFFFFFFFFFFFFFFFFFFFFFFFFFFFFFFFFFFFF AND PUSH32 0x5A5084339536BCAB65F20799FCC58724588145CA054BD2BE626174B27BA156F7 DUP6 DUP6 TIMESTAMP PUSH1 0x2 PUSH1 0x0 DUP13 PUSH20 0xFFFFFFFFFFFFFFFFFFFFFFFFFFFFFFFFFFFFFFFF AND PUSH20 0xFFFFFFFFFFFFFFFFFFFFFFFFFFFFFFFFFFFFFFFF AND DUP2 MSTORE PUSH1 0x20 ADD SWAP1 DUP2 MSTORE PUSH1 0x20 ADD PUSH1 0x0 KECCAK256 SLOAD PUSH1 0x40 MLOAD PUSH2 0x1051 SWAP5 SWAP4 SWAP3 SWAP2 SWAP1 PUSH2 0x245A JUMP JUMPDEST PUSH1 0x40 MLOAD DUP1 SWAP2 SUB SWAP1 LOG2 NUMBER PUSH1 0x2 PUSH1 0x0 DUP9 PUSH20 0xFFFFFFFFFFFFFFFFFFFFFFFFFFFFFFFFFFFFFFFF AND PUSH20 0xFFFFFFFFFFFFFFFFFFFFFFFFFFFFFFFFFFFFFFFF AND DUP2 MSTORE PUSH1 0x20 ADD SWAP1 DUP2 MSTORE PUSH1 0x20 ADD PUSH1 0x0 KECCAK256 DUP2 SWAP1 SSTORE POP POP POP POP POP POP POP JUMP JUMPDEST DUP5 DUP5 PUSH2 0x10B0 DUP3 PUSH2 0x602 JUMP JUMPDEST PUSH20 0xFFFFFFFFFFFFFFFFFFFFFFFFFFFFFFFFFFFFFFFF AND DUP2 PUSH20 0xFFFFFFFFFFFFFFFFFFFFFFFFFFFFFFFFFFFFFFFF AND EQ PUSH2 0x111D JUMPI PUSH1 0x40 MLOAD PUSH32 0x8C379A000000000000000000000000000000000000000000000000000000000 DUP2 MSTORE PUSH1 0x4 ADD PUSH2 0x1114 SWAP1 PUSH2 0x2167 JUMP JUMPDEST PUSH1 0x40 MLOAD DUP1 SWAP2 SUB SWAP1 REVERT JUMPDEST DUP3 TIMESTAMP PUSH2 0x1129 SWAP2 SWAP1 PUSH2 0x238F JUMP JUMPDEST PUSH1 0x1 PUSH1 0x0 DUP10 PUSH20 0xFFFFFFFFFFFFFFFFFFFFFFFFFFFFFFFFFFFFFFFF AND PUSH20 0xFFFFFFFFFFFFFFFFFFFFFFFFFFFFFFFFFFFFFFFF AND DUP2 MSTORE PUSH1 0x20 ADD SWAP1 DUP2 MSTORE PUSH1 0x20 ADD PUSH1 0x0 KECCAK256 PUSH1 0x0 DUP8 PUSH1 0x40 MLOAD PUSH1 0x20 ADD PUSH2 0x117B SWAP2 SWAP1 PUSH2 0x1E5A JUMP JUMPDEST PUSH1 0x40 MLOAD PUSH1 0x20 DUP2 DUP4 SUB SUB DUP2 MSTORE SWAP1 PUSH1 0x40 MSTORE DUP1 MLOAD SWAP1 PUSH1 0x20 ADD KECCAK256 DUP2 MSTORE PUSH1 0x20 ADD SWAP1 DUP2 MSTORE PUSH1 0x20 ADD PUSH1 0x0 KECCAK256 PUSH1 0x0 DUP7 PUSH20 0xFFFFFFFFFFFFFFFFFFFFFFFFFFFFFFFFFFFFFFFF AND PUSH20 0xFFFFFFFFFFFFFFFFFFFFFFFFFFFFFFFFFFFFFFFF AND DUP2 MSTORE PUSH1 0x20 ADD SWAP1 DUP2 MSTORE PUSH1 0x20 ADD PUSH1 0x0 KECCAK256 DUP2 SWAP1 SSTORE POP DUP7 PUSH20 0xFFFFFFFFFFFFFFFFFFFFFFFFFFFFFFFFFFFFFFFF AND PUSH32 0x5A5084339536BCAB65F20799FCC58724588145CA054BD2BE626174B27BA156F7 DUP7 DUP7 DUP7 TIMESTAMP PUSH2 0x1226 SWAP2 SWAP1 PUSH2 0x238F JUMP JUMPDEST PUSH1 0x2 PUSH1 0x0 DUP14 PUSH20 0xFFFFFFFFFFFFFFFFFFFFFFFFFFFFFFFFFFFFFFFF AND PUSH20 0xFFFFFFFFFFFFFFFFFFFFFFFFFFFFFFFFFFFFFFFF AND DUP2 MSTORE PUSH1 0x20 ADD SWAP1 DUP2 MSTORE PUSH1 0x20 ADD PUSH1 0x0 KECCAK256 SLOAD PUSH1 0x40 MLOAD PUSH2 0x1276 SWAP5 SWAP4 SWAP3 SWAP2 SWAP1 PUSH2 0x245A JUMP JUMPDEST PUSH1 0x40 MLOAD DUP1 SWAP2 SUB SWAP1 LOG2 NUMBER PUSH1 0x2 PUSH1 0x0 DUP10 PUSH20 0xFFFFFFFFFFFFFFFFFFFFFFFFFFFFFFFFFFFFFFFF AND PUSH20 0xFFFFFFFFFFFFFFFFFFFFFFFFFFFFFFFFFFFFFFFF AND DUP2 MSTORE PUSH1 0x20 ADD SWAP1 DUP2 MSTORE PUSH1 0x20 ADD PUSH1 0x0 KECCAK256 DUP2 SWAP1 SSTORE POP POP POP POP POP POP POP POP JUMP JUMPDEST PUSH1 0x0 PUSH1 0x40 MLOAD SWAP1 POP SWAP1 JUMP JUMPDEST PUSH1 0x0 DUP1 REVERT JUMPDEST PUSH1 0x0 DUP1 REVERT JUMPDEST PUSH1 0x0 PUSH20 0xFFFFFFFFFFFFFFFFFFFFFFFFFFFFFFFFFFFFFFFF DUP3 AND SWAP1 POP SWAP2 SWAP1 POP JUMP JUMPDEST PUSH1 0x0 PUSH2 0x130A DUP3 PUSH2 0x12DF JUMP JUMPDEST SWAP1 POP SWAP2 SWAP1 POP JUMP JUMPDEST PUSH2 0x131A DUP2 PUSH2 0x12FF JUMP JUMPDEST DUP2 EQ PUSH2 0x1325 JUMPI PUSH1 0x0 DUP1 REVERT JUMPDEST POP JUMP JUMPDEST PUSH1 0x0 DUP2 CALLDATALOAD SWAP1 POP PUSH2 0x1337 DUP2 PUSH2 0x1311 JUMP JUMPDEST SWAP3 SWAP2 POP POP JUMP JUMPDEST PUSH1 0x0 DUP2 SWAP1 POP SWAP2 SWAP1 POP JUMP JUMPDEST PUSH2 0x1350 DUP2 PUSH2 0x133D JUMP JUMPDEST DUP2 EQ PUSH2 0x135B JUMPI PUSH1 0x0 DUP1 REVERT JUMPDEST POP JUMP JUMPDEST PUSH1 0x0 DUP2 CALLDATALOAD SWAP1 POP PUSH2 0x136D DUP2 PUSH2 0x1347 JUMP JUMPDEST SWAP3 SWAP2 POP POP JUMP JUMPDEST PUSH1 0x0 DUP1 REVERT JUMPDEST PUSH1 0x0 DUP1 REVERT JUMPDEST PUSH1 0x0 PUSH1 0x1F NOT PUSH1 0x1F DUP4 ADD AND SWAP1 POP SWAP2 SWAP1 POP JUMP JUMPDEST PUSH32 0x4E487B7100000000000000000000000000000000000000000000000000000000 PUSH1 0x0 MSTORE PUSH1 0x41 PUSH1 0x4 MSTORE PUSH1 0x24 PUSH1 0x0 REVERT JUMPDEST PUSH2 0x13C6 DUP3 PUSH2 0x137D JUMP JUMPDEST DUP2 ADD DUP2 DUP2 LT PUSH8 0xFFFFFFFFFFFFFFFF DUP3 GT OR ISZERO PUSH2 0x13E5 JUMPI PUSH2 0x13E4 PUSH2 0x138E JUMP JUMPDEST JUMPDEST DUP1 PUSH1 0x40 MSTORE POP POP POP JUMP JUMPDEST PUSH1 0x0 PUSH2 0x13F8 PUSH2 0x12CB JUMP JUMPDEST SWAP1 POP PUSH2 0x1404 DUP3 DUP3 PUSH2 0x13BD JUMP JUMPDEST SWAP2 SWAP1 POP JUMP JUMPDEST PUSH1 0x0 PUSH8 0xFFFFFFFFFFFFFFFF DUP3 GT ISZERO PUSH2 0x1424 JUMPI PUSH2 0x1423 PUSH2 0x138E JUMP JUMPDEST JUMPDEST PUSH2 0x142D DUP3 PUSH2 0x137D JUMP JUMPDEST SWAP1 POP PUSH1 0x20 DUP2 ADD SWAP1 POP SWAP2 SWAP1 POP JUMP JUMPDEST DUP3 DUP2 DUP4 CALLDATACOPY PUSH1 0x0 DUP4 DUP4 ADD MSTORE POP POP POP JUMP JUMPDEST PUSH1 0x0 PUSH2 0x145C PUSH2 0x1457 DUP5 PUSH2 0x1409 JUMP JUMPDEST PUSH2 0x13EE JUMP JUMPDEST SWAP1 POP DUP3 DUP2 MSTORE PUSH1 0x20 DUP2 ADD DUP5 DUP5 DUP5 ADD GT ISZERO PUSH2 0x1478 JUMPI PUSH2 0x1477 PUSH2 0x1378 JUMP JUMPDEST JUMPDEST PUSH2 0x1483 DUP5 DUP3 DUP6 PUSH2 0x143A JUMP JUMPDEST POP SWAP4 SWAP3 POP POP POP JUMP JUMPDEST PUSH1 0x0 DUP3 PUSH1 0x1F DUP4 ADD SLT PUSH2 0x14A0 JUMPI PUSH2 0x149F PUSH2 0x1373 JUMP JUMPDEST JUMPDEST DUP2 CALLDATALOAD PUSH2 0x14B0 DUP5 DUP3 PUSH1 0x20 DUP7 ADD PUSH2 0x1449 JUMP JUMPDEST SWAP2 POP POP SWAP3 SWAP2 POP POP JUMP JUMPDEST PUSH1 0x0 DUP1 PUSH1 0x0 PUSH1 0x60 DUP5 DUP7 SUB SLT ISZERO PUSH2 0x14D2 JUMPI PUSH2 0x14D1 PUSH2 0x12D5 JUMP JUMPDEST JUMPDEST PUSH1 0x0 PUSH2 0x14E0 DUP7 DUP3 DUP8 ADD PUSH2 0x1328 JUMP JUMPDEST SWAP4 POP POP PUSH1 0x20 PUSH2 0x14F1 DUP7 DUP3 DUP8 ADD PUSH2 0x135E JUMP JUMPDEST SWAP3 POP POP PUSH1 0x40 DUP5 ADD CALLDATALOAD PUSH8 0xFFFFFFFFFFFFFFFF DUP2 GT ISZERO PUSH2 0x1512 JUMPI PUSH2 0x1511 PUSH2 0x12DA JUMP JUMPDEST JUMPDEST PUSH2 0x151E DUP7 DUP3 DUP8 ADD PUSH2 0x148B JUMP JUMPDEST SWAP2 POP POP SWAP3 POP SWAP3 POP SWAP3 JUMP JUMPDEST PUSH1 0x0 PUSH1 0x20 DUP3 DUP5 SUB SLT ISZERO PUSH2 0x153E JUMPI PUSH2 0x153D PUSH2 0x12D5 JUMP JUMPDEST JUMPDEST PUSH1 0x0 PUSH2 0x154C DUP5 DUP3 DUP6 ADD PUSH2 0x1328 JUMP JUMPDEST SWAP2 POP POP SWAP3 SWAP2 POP POP JUMP JUMPDEST PUSH2 0x155E DUP2 PUSH2 0x12FF JUMP JUMPDEST DUP3 MSTORE POP POP JUMP JUMPDEST PUSH1 0x0 PUSH1 0x20 DUP3 ADD SWAP1 POP PUSH2 0x1579 PUSH1 0x0 DUP4 ADD DUP5 PUSH2 0x1555 JUMP JUMPDEST SWAP3 SWAP2 POP POP JUMP JUMPDEST PUSH1 0x0 DUP1 PUSH1 0x0 PUSH1 0x60 DUP5 DUP7 SUB SLT ISZERO PUSH2 0x1598 JUMPI PUSH2 0x1597 PUSH2 0x12D5 JUMP JUMPDEST JUMPDEST PUSH1 0x0 PUSH2 0x15A6 DUP7 DUP3 DUP8 ADD PUSH2 0x1328 JUMP JUMPDEST SWAP4 POP POP PUSH1 0x20 PUSH2 0x15B7 DUP7 DUP3 DUP8 ADD PUSH2 0x135E JUMP JUMPDEST SWAP3 POP POP PUSH1 0x40 PUSH2 0x15C8 DUP7 DUP3 DUP8 ADD PUSH2 0x1328 JUMP JUMPDEST SWAP2 POP POP SWAP3 POP SWAP3 POP SWAP3 JUMP JUMPDEST PUSH1 0x0 DUP2 SWAP1 POP SWAP2 SWAP1 POP JUMP JUMPDEST PUSH2 0x15E5 DUP2 PUSH2 0x15D2 JUMP JUMPDEST DUP3 MSTORE POP POP JUMP JUMPDEST PUSH1 0x0 PUSH1 0x20 DUP3 ADD SWAP1 POP PUSH2 0x1600 PUSH1 0x0 DUP4 ADD DUP5 PUSH2 0x15DC JUMP JUMPDEST SWAP3 SWAP2 POP POP JUMP JUMPDEST PUSH1 0x0 PUSH1 0xFF DUP3 AND SWAP1 POP SWAP2 SWAP1 POP JUMP JUMPDEST PUSH2 0x161C DUP2 PUSH2 0x1606 JUMP JUMPDEST DUP2 EQ PUSH2 0x1627 JUMPI PUSH1 0x0 DUP1 REVERT JUMPDEST POP JUMP JUMPDEST PUSH1 0x0 DUP2 CALLDATALOAD SWAP1 POP PUSH2 0x1639 DUP2 PUSH2 0x1613 JUMP JUMPDEST SWAP3 SWAP2 POP POP JUMP JUMPDEST PUSH2 0x1648 DUP2 PUSH2 0x15D2 JUMP JUMPDEST DUP2 EQ PUSH2 0x1653 JUMPI PUSH1 0x0 DUP1 REVERT JUMPDEST POP JUMP JUMPDEST PUSH1 0x0 DUP2 CALLDATALOAD SWAP1 POP PUSH2 0x1665 DUP2 PUSH2 0x163F JUMP JUMPDEST SWAP3 SWAP2 POP POP JUMP JUMPDEST PUSH1 0x0 DUP1 PUSH1 0x0 DUP1 PUSH1 0x0 DUP1 PUSH1 0x0 PUSH1 0xE0 DUP9 DUP11 SUB SLT ISZERO PUSH2 0x168A JUMPI PUSH2 0x1689 PUSH2 0x12D5 JUMP JUMPDEST JUMPDEST PUSH1 0x0 PUSH2 0x1698 DUP11 DUP3 DUP12 ADD PUSH2 0x1328 JUMP JUMPDEST SWAP8 POP POP PUSH1 0x20 PUSH2 0x16A9 DUP11 DUP3 DUP12 ADD PUSH2 0x162A JUMP JUMPDEST SWAP7 POP POP PUSH1 0x40 PUSH2 0x16BA DUP11 DUP3 DUP12 ADD PUSH2 0x135E JUMP JUMPDEST SWAP6 POP POP PUSH1 0x60 PUSH2 0x16CB DUP11 DUP3 DUP12 ADD PUSH2 0x135E JUMP JUMPDEST SWAP5 POP POP PUSH1 0x80 PUSH2 0x16DC DUP11 DUP3 DUP12 ADD PUSH2 0x135E JUMP JUMPDEST SWAP4 POP POP PUSH1 0xA0 DUP9 ADD CALLDATALOAD PUSH8 0xFFFFFFFFFFFFFFFF DUP2 GT ISZERO PUSH2 0x16FD JUMPI PUSH2 0x16FC PUSH2 0x12DA JUMP JUMPDEST JUMPDEST PUSH2 0x1709 DUP11 DUP3 DUP12 ADD PUSH2 0x148B JUMP JUMPDEST SWAP3 POP POP PUSH1 0xC0 PUSH2 0x171A DUP11 DUP3 DUP12 ADD PUSH2 0x1656 JUMP JUMPDEST SWAP2 POP POP SWAP3 SWAP6 SWAP9 SWAP2 SWAP5 SWAP8 POP SWAP3 SWAP6 POP JUMP JUMPDEST PUSH1 0x0 DUP1 PUSH1 0x0 DUP1 PUSH1 0x0 PUSH1 0xA0 DUP7 DUP9 SUB SLT ISZERO PUSH2 0x1745 JUMPI PUSH2 0x1744 PUSH2 0x12D5 JUMP JUMPDEST JUMPDEST PUSH1 0x0 PUSH2 0x1753 DUP9 DUP3 DUP10 ADD PUSH2 0x1328 JUMP JUMPDEST SWAP6 POP POP PUSH1 0x20 PUSH2 0x1764 DUP9 DUP3 DUP10 ADD PUSH2 0x162A JUMP JUMPDEST SWAP5 POP POP PUSH1 0x40 PUSH2 0x1775 DUP9 DUP3 DUP10 ADD PUSH2 0x135E JUMP JUMPDEST SWAP4 POP POP PUSH1 0x60 PUSH2 0x1786 DUP9 DUP3 DUP10 ADD PUSH2 0x135E JUMP JUMPDEST SWAP3 POP POP PUSH1 0x80 PUSH2 0x1797 DUP9 DUP3 DUP10 ADD PUSH2 0x1328 JUMP JUMPDEST SWAP2 POP POP SWAP3 SWAP6 POP SWAP3 SWAP6 SWAP1 SWAP4 POP JUMP JUMPDEST PUSH1 0x0 DUP2 ISZERO ISZERO SWAP1 POP SWAP2 SWAP1 POP JUMP JUMPDEST PUSH2 0x17B9 DUP2 PUSH2 0x17A4 JUMP JUMPDEST DUP3 MSTORE POP POP JUMP JUMPDEST PUSH1 0x0 PUSH1 0x20 DUP3 ADD SWAP1 POP PUSH2 0x17D4 PUSH1 0x0 DUP4 ADD DUP5 PUSH2 0x17B0 JUMP JUMPDEST SWAP3 SWAP2 POP POP JUMP JUMPDEST PUSH1 0x0 DUP1 PUSH1 0x0 DUP1 PUSH1 0x80 DUP6 DUP8 SUB SLT ISZERO PUSH2 0x17F4 JUMPI PUSH2 0x17F3 PUSH2 0x12D5 JUMP JUMPDEST JUMPDEST PUSH1 0x0 PUSH2 0x1802 DUP8 DUP3 DUP9 ADD PUSH2 0x1328 JUMP JUMPDEST SWAP5 POP POP PUSH1 0x20 PUSH2 0x1813 DUP8 DUP3 DUP9 ADD PUSH2 0x135E JUMP JUMPDEST SWAP4 POP POP PUSH1 0x40 DUP6 ADD CALLDATALOAD PUSH8 0xFFFFFFFFFFFFFFFF DUP2 GT ISZERO PUSH2 0x1834 JUMPI PUSH2 0x1833 PUSH2 0x12DA JUMP JUMPDEST JUMPDEST PUSH2 0x1840 DUP8 DUP3 DUP9 ADD PUSH2 0x148B JUMP JUMPDEST SWAP3 POP POP PUSH1 0x60 PUSH2 0x1851 DUP8 DUP3 DUP9 ADD PUSH2 0x1656 JUMP JUMPDEST SWAP2 POP POP SWAP3 SWAP6 SWAP2 SWAP5 POP SWAP3 POP JUMP JUMPDEST PUSH1 0x0 DUP1 PUSH1 0x0 DUP1 PUSH1 0x0 DUP1 PUSH1 0xC0 DUP8 DUP10 SUB SLT ISZERO PUSH2 0x187A JUMPI PUSH2 0x1879 PUSH2 0x12D5 JUMP JUMPDEST JUMPDEST PUSH1 0x0 PUSH2 0x1888 DUP10 DUP3 DUP11 ADD PUSH2 0x1328 JUMP JUMPDEST SWAP7 POP POP PUSH1 0x20 PUSH2 0x1899 DUP10 DUP3 DUP11 ADD PUSH2 0x162A JUMP JUMPDEST SWAP6 POP POP PUSH1 0x40 PUSH2 0x18AA DUP10 DUP3 DUP11 ADD PUSH2 0x135E JUMP JUMPDEST SWAP5 POP POP PUSH1 0x60 PUSH2 0x18BB DUP10 DUP3 DUP11 ADD PUSH2 0x135E JUMP JUMPDEST SWAP4 POP POP PUSH1 0x80 PUSH2 0x18CC DUP10 DUP3 DUP11 ADD PUSH2 0x135E JUMP JUMPDEST SWAP3 POP POP PUSH1 0xA0 PUSH2 0x18DD DUP10 DUP3 DUP11 ADD PUSH2 0x1328 JUMP JUMPDEST SWAP2 POP POP SWAP3 SWAP6 POP SWAP3 SWAP6 POP SWAP3 SWAP6 JUMP JUMPDEST PUSH1 0x0 DUP1 PUSH1 0x0 DUP1 PUSH1 0x0 DUP1 PUSH1 0x0 PUSH1 0xE0 DUP9 DUP11 SUB SLT ISZERO PUSH2 0x1909 JUMPI PUSH2 0x1908 PUSH2 0x12D5 JUMP JUMPDEST JUMPDEST PUSH1 0x0 PUSH2 0x1917 DUP11 DUP3 DUP12 ADD PUSH2 0x1328 JUMP JUMPDEST SWAP8 POP POP PUSH1 0x20 PUSH2 0x1928 DUP11 DUP3 DUP12 ADD PUSH2 0x162A JUMP JUMPDEST SWAP7 POP POP PUSH1 0x40 PUSH2 0x1939 DUP11 DUP3 DUP12 ADD PUSH2 0x135E JUMP JUMPDEST SWAP6 POP POP PUSH1 0x60 PUSH2 0x194A DUP11 DUP3 DUP12 ADD PUSH2 0x135E JUMP JUMPDEST SWAP5 POP POP PUSH1 0x80 PUSH2 0x195B DUP11 DUP3 DUP12 ADD PUSH2 0x135E JUMP JUMPDEST SWAP4 POP POP PUSH1 0xA0 PUSH2 0x196C DUP11 DUP3 DUP12 ADD PUSH2 0x1328 JUMP JUMPDEST SWAP3 POP POP PUSH1 0xC0 PUSH2 0x197D DUP11 DUP3 DUP12 ADD PUSH2 0x1656 JUMP JUMPDEST SWAP2 POP POP SWAP3 SWAP6 SWAP9 SWAP2 SWAP5 SWAP8 POP SWAP3 SWAP6 POP JUMP JUMPDEST PUSH1 0x0 DUP1 PUSH1 0x0 DUP1 PUSH1 0x80 DUP6 DUP8 SUB SLT ISZERO PUSH2 0x19A6 JUMPI PUSH2 0x19A5 PUSH2 0x12D5 JUMP JUMPDEST JUMPDEST PUSH1 0x0 PUSH2 0x19B4 DUP8 DUP3 DUP9 ADD PUSH2 0x1328 JUMP JUMPDEST SWAP5 POP POP PUSH1 0x20 PUSH2 0x19C5 DUP8 DUP3 DUP9 ADD PUSH2 0x135E JUMP JUMPDEST SWAP4 POP POP PUSH1 0x40 PUSH2 0x19D6 DUP8 DUP3 DUP9 ADD PUSH2 0x1328 JUMP JUMPDEST SWAP3 POP POP PUSH1 0x60 PUSH2 0x19E7 DUP8 DUP3 DUP9 ADD PUSH2 0x1656 JUMP JUMPDEST SWAP2 POP POP SWAP3 SWAP6 SWAP2 SWAP5 POP SWAP3 POP JUMP JUMPDEST PUSH1 0x0 DUP1 PUSH1 0x0 DUP1 PUSH1 0x0 DUP1 PUSH1 0xC0 DUP8 DUP10 SUB SLT ISZERO PUSH2 0x1A10 JUMPI PUSH2 0x1A0F PUSH2 0x12D5 JUMP JUMPDEST JUMPDEST PUSH1 0x0 PUSH2 0x1A1E DUP10 DUP3 DUP11 ADD PUSH2 0x1328 JUMP JUMPDEST SWAP7 POP POP PUSH1 0x20 PUSH2 0x1A2F DUP10 DUP3 DUP11 ADD PUSH2 0x162A JUMP JUMPDEST SWAP6 POP POP PUSH1 0x40 PUSH2 0x1A40 DUP10 DUP3 DUP11 ADD PUSH2 0x135E JUMP JUMPDEST SWAP5 POP POP PUSH1 0x60 PUSH2 0x1A51 DUP10 DUP3 DUP11 ADD PUSH2 0x135E JUMP JUMPDEST SWAP4 POP POP PUSH1 0x80 PUSH2 0x1A62 DUP10 DUP3 DUP11 ADD PUSH2 0x135E JUMP JUMPDEST SWAP3 POP POP PUSH1 0xA0 DUP8 ADD CALLDATALOAD PUSH8 0xFFFFFFFFFFFFFFFF DUP2 GT ISZERO PUSH2 0x1A83 JUMPI PUSH2 0x1A82 PUSH2 0x12DA JUMP JUMPDEST JUMPDEST PUSH2 0x1A8F DUP10 DUP3 DUP11 ADD PUSH2 0x148B JUMP JUMPDEST SWAP2 POP POP SWAP3 SWAP6 POP SWAP3 SWAP6 POP SWAP3 SWAP6 JUMP JUMPDEST PUSH1 0x0 DUP1 PUSH1 0x40 DUP4 DUP6 SUB SLT ISZERO PUSH2 0x1AB3 JUMPI PUSH2 0x1AB2 PUSH2 0x12D5 JUMP JUMPDEST JUMPDEST PUSH1 0x0 PUSH2 0x1AC1 DUP6 DUP3 DUP7 ADD PUSH2 0x1328 JUMP JUMPDEST SWAP3 POP POP PUSH1 0x20 PUSH2 0x1AD2 DUP6 DUP3 DUP7 ADD PUSH2 0x1328 JUMP JUMPDEST SWAP2 POP POP SWAP3 POP SWAP3 SWAP1 POP JUMP JUMPDEST PUSH1 0x0 PUSH32 0xFF00000000000000000000000000000000000000000000000000000000000000 DUP3 AND SWAP1 POP SWAP2 SWAP1 POP JUMP JUMPDEST PUSH1 0x0 DUP2 SWAP1 POP SWAP2 SWAP1 POP JUMP JUMPDEST PUSH2 0x1B23 PUSH2 0x1B1E DUP3 PUSH2 0x1ADC JUMP JUMPDEST PUSH2 0x1B08 JUMP JUMPDEST DUP3 MSTORE POP POP JUMP JUMPDEST PUSH1 0x0 DUP2 SWAP1 POP SWAP2 SWAP1 POP JUMP JUMPDEST PUSH1 0x0 PUSH2 0x1B4E PUSH2 0x1B49 PUSH2 0x1B44 DUP5 PUSH2 0x12DF JUMP JUMPDEST PUSH2 0x1B29 JUMP JUMPDEST PUSH2 0x12DF JUMP JUMPDEST SWAP1 POP SWAP2 SWAP1 POP JUMP JUMPDEST PUSH1 0x0 PUSH2 0x1B60 DUP3 PUSH2 0x1B33 JUMP JUMPDEST SWAP1 POP SWAP2 SWAP1 POP JUMP JUMPDEST PUSH1 0x0 PUSH2 0x1B72 DUP3 PUSH2 0x1B55 JUMP JUMPDEST SWAP1 POP SWAP2 SWAP1 POP JUMP JUMPDEST PUSH1 0x0 DUP2 PUSH1 0x60 SHL SWAP1 POP SWAP2 SWAP1 POP JUMP JUMPDEST PUSH1 0x0 PUSH2 0x1B91 DUP3 PUSH2 0x1B79 JUMP JUMPDEST SWAP1 POP SWAP2 SWAP1 POP JUMP JUMPDEST PUSH1 0x0 PUSH2 0x1BA3 DUP3 PUSH2 0x1B86 JUMP JUMPDEST SWAP1 POP SWAP2 SWAP1 POP JUMP JUMPDEST PUSH2 0x1BBB PUSH2 0x1BB6 DUP3 PUSH2 0x1B67 JUMP JUMPDEST PUSH2 0x1B98 JUMP JUMPDEST DUP3 MSTORE POP POP JUMP JUMPDEST PUSH1 0x0 DUP2 SWAP1 POP SWAP2 SWAP1 POP JUMP JUMPDEST PUSH2 0x1BDC PUSH2 0x1BD7 DUP3 PUSH2 0x15D2 JUMP JUMPDEST PUSH2 0x1BC1 JUMP JUMPDEST DUP3 MSTORE POP POP JUMP JUMPDEST PUSH2 0x1BF3 PUSH2 0x1BEE DUP3 PUSH2 0x12FF JUMP JUMPDEST PUSH2 0x1B98 JUMP JUMPDEST DUP3 MSTORE POP POP JUMP JUMPDEST PUSH1 0x0 DUP2 SWAP1 POP SWAP3 SWAP2 POP POP JUMP JUMPDEST PUSH32 0x7365744174747269627574650000000000000000000000000000000000000000 PUSH1 0x0 DUP3 ADD MSTORE POP JUMP JUMPDEST PUSH1 0x0 PUSH2 0x1C3A PUSH1 0xC DUP4 PUSH2 0x1BF9 JUMP JUMPDEST SWAP2 POP PUSH2 0x1C45 DUP3 PUSH2 0x1C04 JUMP JUMPDEST PUSH1 0xC DUP3 ADD SWAP1 POP SWAP2 SWAP1 POP JUMP JUMPDEST PUSH1 0x0 DUP2 SWAP1 POP SWAP2 SWAP1 POP JUMP JUMPDEST PUSH2 0x1C6B PUSH2 0x1C66 DUP3 PUSH2 0x133D JUMP JUMPDEST PUSH2 0x1C50 JUMP JUMPDEST DUP3 MSTORE POP POP JUMP JUMPDEST PUSH1 0x0 DUP2 MLOAD SWAP1 POP SWAP2 SWAP1 POP JUMP JUMPDEST PUSH1 0x0 DUP2 SWAP1 POP SWAP3 SWAP2 POP POP JUMP JUMPDEST PUSH1 0x0 JUMPDEST DUP4 DUP2 LT ISZERO PUSH2 0x1CA5 JUMPI DUP1 DUP3 ADD MLOAD DUP2 DUP5 ADD MSTORE PUSH1 0x20 DUP2 ADD SWAP1 POP PUSH2 0x1C8A JUMP JUMPDEST DUP4 DUP2 GT ISZERO PUSH2 0x1CB4 JUMPI PUSH1 0x0 DUP5 DUP5 ADD MSTORE JUMPDEST POP POP POP POP JUMP JUMPDEST PUSH1 0x0 PUSH2 0x1CC5 DUP3 PUSH2 0x1C71 JUMP JUMPDEST PUSH2 0x1CCF DUP2 DUP6 PUSH2 0x1C7C JUMP JUMPDEST SWAP4 POP PUSH2 0x1CDF DUP2 DUP6 PUSH1 0x20 DUP7 ADD PUSH2 0x1C87 JUMP JUMPDEST DUP1 DUP5 ADD SWAP2 POP POP SWAP3 SWAP2 POP POP JUMP JUMPDEST PUSH1 0x0 PUSH2 0x1CF7 DUP3 DUP12 PUSH2 0x1B12 JUMP JUMPDEST PUSH1 0x1 DUP3 ADD SWAP2 POP PUSH2 0x1D07 DUP3 DUP11 PUSH2 0x1B12 JUMP JUMPDEST PUSH1 0x1 DUP3 ADD SWAP2 POP PUSH2 0x1D17 DUP3 DUP10 PUSH2 0x1BAA JUMP JUMPDEST PUSH1 0x14 DUP3 ADD SWAP2 POP PUSH2 0x1D27 DUP3 DUP9 PUSH2 0x1BCB JUMP JUMPDEST PUSH1 0x20 DUP3 ADD SWAP2 POP PUSH2 0x1D37 DUP3 DUP8 PUSH2 0x1BE2 JUMP JUMPDEST PUSH1 0x14 DUP3 ADD SWAP2 POP PUSH2 0x1D46 DUP3 PUSH2 0x1C2D JUMP JUMPDEST SWAP2 POP PUSH2 0x1D52 DUP3 DUP7 PUSH2 0x1C5A JUMP JUMPDEST PUSH1 0x20 DUP3 ADD SWAP2 POP PUSH2 0x1D62 DUP3 DUP6 PUSH2 0x1CBA JUMP JUMPDEST SWAP2 POP PUSH2 0x1D6E DUP3 DUP5 PUSH2 0x1BCB JUMP JUMPDEST PUSH1 0x20 DUP3 ADD SWAP2 POP DUP2 SWAP1 POP SWAP10 SWAP9 POP POP POP POP POP POP POP POP POP JUMP JUMPDEST PUSH32 0x6368616E67654F776E6572000000000000000000000000000000000000000000 PUSH1 0x0 DUP3 ADD MSTORE POP JUMP JUMPDEST PUSH1 0x0 PUSH2 0x1DBA PUSH1 0xB DUP4 PUSH2 0x1BF9 JUMP JUMPDEST SWAP2 POP PUSH2 0x1DC5 DUP3 PUSH2 0x1D84 JUMP JUMPDEST PUSH1 0xB DUP3 ADD SWAP1 POP SWAP2 SWAP1 POP JUMP JUMPDEST PUSH1 0x0 PUSH2 0x1DDC DUP3 DUP10 PUSH2 0x1B12 JUMP JUMPDEST PUSH1 0x1 DUP3 ADD SWAP2 POP PUSH2 0x1DEC DUP3 DUP9 PUSH2 0x1B12 JUMP JUMPDEST PUSH1 0x1 DUP3 ADD SWAP2 POP PUSH2 0x1DFC DUP3 DUP8 PUSH2 0x1BAA JUMP JUMPDEST PUSH1 0x14 DUP3 ADD SWAP2 POP PUSH2 0x1E0C DUP3 DUP7 PUSH2 0x1BCB JUMP JUMPDEST PUSH1 0x20 DUP3 ADD SWAP2 POP PUSH2 0x1E1C DUP3 DUP6 PUSH2 0x1BE2 JUMP JUMPDEST PUSH1 0x14 DUP3 ADD SWAP2 POP PUSH2 0x1E2B DUP3 PUSH2 0x1DAD JUMP JUMPDEST SWAP2 POP PUSH2 0x1E37 DUP3 DUP5 PUSH2 0x1BE2 JUMP JUMPDEST PUSH1 0x14 DUP3 ADD SWAP2 POP DUP2 SWAP1 POP SWAP8 SWAP7 POP POP POP POP POP POP POP JUMP JUMPDEST PUSH2 0x1E54 DUP2 PUSH2 0x133D JUMP JUMPDEST DUP3 MSTORE POP POP JUMP JUMPDEST PUSH1 0x0 PUSH1 0x20 DUP3 ADD SWAP1 POP PUSH2 0x1E6F PUSH1 0x0 DUP4 ADD DUP5 PUSH2 0x1E4B JUMP JUMPDEST SWAP3 SWAP2 POP POP JUMP JUMPDEST PUSH32 0x7265766F6B6544656C6567617465000000000000000000000000000000000000 PUSH1 0x0 DUP3 ADD MSTORE POP JUMP JUMPDEST PUSH1 0x0 PUSH2 0x1EAB PUSH1 0xE DUP4 PUSH2 0x1BF9 JUMP JUMPDEST SWAP2 POP PUSH2 0x1EB6 DUP3 PUSH2 0x1E75 JUMP JUMPDEST PUSH1 0xE DUP3 ADD SWAP1 POP SWAP2 SWAP1 POP JUMP JUMPDEST PUSH1 0x0 PUSH2 0x1ECD DUP3 DUP11 PUSH2 0x1B12 JUMP JUMPDEST PUSH1 0x1 DUP3 ADD SWAP2 POP PUSH2 0x1EDD DUP3 DUP10 PUSH2 0x1B12 JUMP JUMPDEST PUSH1 0x1 DUP3 ADD SWAP2 POP PUSH2 0x1EED DUP3 DUP9 PUSH2 0x1BAA JUMP JUMPDEST PUSH1 0x14 DUP3 ADD SWAP2 POP PUSH2 0x1EFD DUP3 DUP8 PUSH2 0x1BCB JUMP JUMPDEST PUSH1 0x20 DUP3 ADD SWAP2 POP PUSH2 0x1F0D DUP3 DUP7 PUSH2 0x1BE2 JUMP JUMPDEST PUSH1 0x14 DUP3 ADD SWAP2 POP PUSH2 0x1F1C DUP3 PUSH2 0x1E9E JUMP JUMPDEST SWAP2 POP PUSH2 0x1F28 DUP3 DUP6 PUSH2 0x1C5A JUMP JUMPDEST PUSH1 0x20 DUP3 ADD SWAP2 POP PUSH2 0x1F38 DUP3 DUP5 PUSH2 0x1BE2 JUMP JUMPDEST PUSH1 0x14 DUP3 ADD SWAP2 POP DUP2 SWAP1 POP SWAP9 SWAP8 POP POP POP POP POP POP POP POP JUMP JUMPDEST PUSH32 0x61646444656C6567617465000000000000000000000000000000000000000000 PUSH1 0x0 DUP3 ADD MSTORE POP JUMP JUMPDEST PUSH1 0x0 PUSH2 0x1F83 PUSH1 0xB DUP4 PUSH2 0x1BF9 JUMP JUMPDEST SWAP2 POP PUSH2 0x1F8E DUP3 PUSH2 0x1F4D JUMP JUMPDEST PUSH1 0xB DUP3 ADD SWAP1 POP SWAP2 SWAP1 POP JUMP JUMPDEST PUSH1 0x0 PUSH2 0x1FA5 DUP3 DUP12 PUSH2 0x1B12 JUMP JUMPDEST PUSH1 0x1 DUP3 ADD SWAP2 POP PUSH2 0x1FB5 DUP3 DUP11 PUSH2 0x1B12 JUMP JUMPDEST PUSH1 0x1 DUP3 ADD SWAP2 POP PUSH2 0x1FC5 DUP3 DUP10 PUSH2 0x1BAA JUMP JUMPDEST PUSH1 0x14 DUP3 ADD SWAP2 POP PUSH2 0x1FD5 DUP3 DUP9 PUSH2 0x1BCB JUMP JUMPDEST PUSH1 0x20 DUP3 ADD SWAP2 POP PUSH2 0x1FE5 DUP3 DUP8 PUSH2 0x1BE2 JUMP JUMPDEST PUSH1 0x14 DUP3 ADD SWAP2 POP PUSH2 0x1FF4 DUP3 PUSH2 0x1F76 JUMP JUMPDEST SWAP2 POP PUSH2 0x2000 DUP3 DUP7 PUSH2 0x1C5A JUMP JUMPDEST PUSH1 0x20 DUP3 ADD SWAP2 POP PUSH2 0x2010 DUP3 DUP6 PUSH2 0x1BE2 JUMP JUMPDEST PUSH1 0x14 DUP3 ADD SWAP2 POP PUSH2 0x2020 DUP3 DUP5 PUSH2 0x1BCB JUMP JUMPDEST PUSH1 0x20 DUP3 ADD SWAP2 POP DUP2 SWAP1 POP SWAP10 SWAP9 POP POP POP POP POP POP POP POP POP JUMP JUMPDEST PUSH32 0x7265766F6B654174747269627574650000000000000000000000000000000000 PUSH1 0x0 DUP3 ADD MSTORE POP JUMP JUMPDEST PUSH1 0x0 PUSH2 0x206C PUSH1 0xF DUP4 PUSH2 0x1BF9 JUMP JUMPDEST SWAP2 POP PUSH2 0x2077 DUP3 PUSH2 0x2036 JUMP JUMPDEST PUSH1 0xF DUP3 ADD SWAP1 POP SWAP2 SWAP1 POP JUMP JUMPDEST PUSH1 0x0 PUSH2 0x208E DUP3 DUP11 PUSH2 0x1B12 JUMP JUMPDEST PUSH1 0x1 DUP3 ADD SWAP2 POP PUSH2 0x209E DUP3 DUP10 PUSH2 0x1B12 JUMP JUMPDEST PUSH1 0x1 DUP3 ADD SWAP2 POP PUSH2 0x20AE DUP3 DUP9 PUSH2 0x1BAA JUMP JUMPDEST PUSH1 0x14 DUP3 ADD SWAP2 POP PUSH2 0x20BE DUP3 DUP8 PUSH2 0x1BCB JUMP JUMPDEST PUSH1 0x20 DUP3 ADD SWAP2 POP PUSH2 0x20CE DUP3 DUP7 PUSH2 0x1BE2 JUMP JUMPDEST PUSH1 0x14 DUP3 ADD SWAP2 POP PUSH2 0x20DD DUP3 PUSH2 0x205F JUMP JUMPDEST SWAP2 POP PUSH2 0x20E9 DUP3 DUP6 PUSH2 0x1C5A JUMP JUMPDEST PUSH1 0x20 DUP3 ADD SWAP2 POP PUSH2 0x20F9 DUP3 DUP5 PUSH2 0x1CBA JUMP JUMPDEST SWAP2 POP DUP2 SWAP1 POP SWAP9 SWAP8 POP POP POP POP POP POP POP POP JUMP JUMPDEST PUSH1 0x0 DUP3 DUP3 MSTORE PUSH1 0x20 DUP3 ADD SWAP1 POP SWAP3 SWAP2 POP POP JUMP JUMPDEST PUSH32 0x6261645F6163746F720000000000000000000000000000000000000000000000 PUSH1 0x0 DUP3 ADD MSTORE POP JUMP JUMPDEST PUSH1 0x0 PUSH2 0x2151 PUSH1 0x9 DUP4 PUSH2 0x210A JUMP JUMPDEST SWAP2 POP PUSH2 0x215C DUP3 PUSH2 0x211B JUMP JUMPDEST PUSH1 0x20 DUP3 ADD SWAP1 POP SWAP2 SWAP1 POP JUMP JUMPDEST PUSH1 0x0 PUSH1 0x20 DUP3 ADD SWAP1 POP DUP2 DUP2 SUB PUSH1 0x0 DUP4 ADD MSTORE PUSH2 0x2180 DUP2 PUSH2 0x2144 JUMP JUMPDEST SWAP1 POP SWAP2 SWAP1 POP JUMP JUMPDEST PUSH1 0x0 DUP3 DUP3 MSTORE PUSH1 0x20 DUP3 ADD SWAP1 POP SWAP3 SWAP2 POP POP JUMP JUMPDEST PUSH1 0x0 PUSH2 0x21A3 DUP3 PUSH2 0x1C71 JUMP JUMPDEST PUSH2 0x21AD DUP2 DUP6 PUSH2 0x2187 JUMP JUMPDEST SWAP4 POP PUSH2 0x21BD DUP2 DUP6 PUSH1 0x20 DUP7 ADD PUSH2 0x1C87 JUMP JUMPDEST PUSH2 0x21C6 DUP2 PUSH2 0x137D JUMP JUMPDEST DUP5 ADD SWAP2 POP POP SWAP3 SWAP2 POP POP JUMP JUMPDEST PUSH1 0x0 DUP2 SWAP1 POP SWAP2 SWAP1 POP JUMP JUMPDEST PUSH1 0x0 PUSH2 0x21F6 PUSH2 0x21F1 PUSH2 0x21EC DUP5 PUSH2 0x21D1 JUMP JUMPDEST PUSH2 0x1B29 JUMP JUMPDEST PUSH2 0x15D2 JUMP JUMPDEST SWAP1 POP SWAP2 SWAP1 POP JUMP JUMPDEST PUSH2 0x2206 DUP2 PUSH2 0x21DB JUMP JUMPDEST DUP3 MSTORE POP POP JUMP JUMPDEST PUSH1 0x0 PUSH1 0x80 DUP3 ADD SWAP1 POP PUSH2 0x2221 PUSH1 0x0 DUP4 ADD DUP8 PUSH2 0x1E4B JUMP JUMPDEST DUP2 DUP2 SUB PUSH1 0x20 DUP4 ADD MSTORE PUSH2 0x2233 DUP2 DUP7 PUSH2 0x2198 JUMP JUMPDEST SWAP1 POP PUSH2 0x2242 PUSH1 0x40 DUP4 ADD DUP6 PUSH2 0x21FD JUMP JUMPDEST PUSH2 0x224F PUSH1 0x60 DUP4 ADD DUP5 PUSH2 0x15DC JUMP JUMPDEST SWAP6 SWAP5 POP POP POP POP POP JUMP JUMPDEST PUSH2 0x2261 DUP2 PUSH2 0x1606 JUMP JUMPDEST DUP3 MSTORE POP POP JUMP JUMPDEST PUSH1 0x0 PUSH1 0x80 DUP3 ADD SWAP1 POP PUSH2 0x227C PUSH1 0x0 DUP4 ADD DUP8 PUSH2 0x1E4B JUMP JUMPDEST PUSH2 0x2289 PUSH1 0x20 DUP4 ADD DUP7 PUSH2 0x2258 JUMP JUMPDEST PUSH2 0x2296 PUSH1 0x40 DUP4 ADD DUP6 PUSH2 0x1E4B JUMP JUMPDEST PUSH2 0x22A3 PUSH1 0x60 DUP4 ADD DUP5 PUSH2 0x1E4B JUMP JUMPDEST SWAP6 SWAP5 POP POP POP POP POP JUMP JUMPDEST PUSH32 0x6261645F7369676E617475726500000000000000000000000000000000000000 PUSH1 0x0 DUP3 ADD MSTORE POP JUMP JUMPDEST PUSH1 0x0 PUSH2 0x22E2 PUSH1 0xD DUP4 PUSH2 0x210A JUMP JUMPDEST SWAP2 POP PUSH2 0x22ED DUP3 PUSH2 0x22AC JUMP JUMPDEST PUSH1 0x20 DUP3 ADD SWAP1 POP SWAP2 SWAP1 POP JUMP JUMPDEST PUSH1 0x0 PUSH1 0x20 DUP3 ADD SWAP1 POP DUP2 DUP2 SUB PUSH1 0x0 DUP4 ADD MSTORE PUSH2 0x2311 DUP2 PUSH2 0x22D5 JUMP JUMPDEST SWAP1 POP SWAP2 SWAP1 POP JUMP JUMPDEST PUSH32 0x4E487B7100000000000000000000000000000000000000000000000000000000 PUSH1 0x0 MSTORE PUSH1 0x11 PUSH1 0x4 MSTORE PUSH1 0x24 PUSH1 0x0 REVERT JUMPDEST PUSH1 0x0 PUSH2 0x2352 DUP3 PUSH2 0x15D2 JUMP JUMPDEST SWAP2 POP PUSH32 0xFFFFFFFFFFFFFFFFFFFFFFFFFFFFFFFFFFFFFFFFFFFFFFFFFFFFFFFFFFFFFFFF DUP3 SUB PUSH2 0x2384 JUMPI PUSH2 0x2383 PUSH2 0x2318 JUMP JUMPDEST JUMPDEST PUSH1 0x1 DUP3 ADD SWAP1 POP SWAP2 SWAP1 POP JUMP JUMPDEST PUSH1 0x0 PUSH2 0x239A DUP3 PUSH2 0x15D2 JUMP JUMPDEST SWAP2 POP PUSH2 0x23A5 DUP4 PUSH2 0x15D2 JUMP JUMPDEST SWAP3 POP DUP3 PUSH32 0xFFFFFFFFFFFFFFFFFFFFFFFFFFFFFFFFFFFFFFFFFFFFFFFFFFFFFFFFFFFFFFFF SUB DUP3 GT ISZERO PUSH2 0x23DA JUMPI PUSH2 0x23D9 PUSH2 0x2318 JUMP JUMPDEST JUMPDEST DUP3 DUP3 ADD SWAP1 POP SWAP3 SWAP2 POP POP JUMP JUMPDEST PUSH1 0x0 PUSH1 0x80 DUP3 ADD SWAP1 POP PUSH2 0x23FA PUSH1 0x0 DUP4 ADD DUP8 PUSH2 0x1E4B JUMP JUMPDEST DUP2 DUP2 SUB PUSH1 0x20 DUP4 ADD MSTORE PUSH2 0x240C DUP2 DUP7 PUSH2 0x2198 JUMP JUMPDEST SWAP1 POP PUSH2 0x241B PUSH1 0x40 DUP4 ADD DUP6 PUSH2 0x15DC JUMP JUMPDEST PUSH2 0x2428 PUSH1 0x60 DUP4 ADD DUP5 PUSH2 0x15DC JUMP JUMPDEST SWAP6 SWAP5 POP POP POP POP POP JUMP JUMPDEST PUSH1 0x0 PUSH1 0x40 DUP3 ADD SWAP1 POP PUSH2 0x2446 PUSH1 0x0 DUP4 ADD DUP6 PUSH2 0x1555 JUMP JUMPDEST PUSH2 0x2453 PUSH1 0x20 DUP4 ADD DUP5 PUSH2 0x15DC JUMP JUMPDEST SWAP4 SWAP3 POP POP POP JUMP JUMPDEST PUSH1 0x0 PUSH1 0x80 DUP3 ADD SWAP1 POP PUSH2 0x246F PUSH1 0x0 DUP4 ADD DUP8 PUSH2 0x1E4B JUMP JUMPDEST PUSH2 0x247C PUSH1 0x20 DUP4 ADD DUP7 PUSH2 0x1555 JUMP JUMPDEST PUSH2 0x2489 PUSH1 0x40 DUP4 ADD DUP6 PUSH2 0x15DC JUMP JUMPDEST PUSH2 0x2496 PUSH1 0x60 DUP4 ADD DUP5 PUSH2 0x15DC JUMP JUMPDEST SWAP6 SWAP5 POP POP POP POP POP JUMP INVALID LOG2 PUSH5 0x6970667358 0x22 SLT KECCAK256 0xBE CODECOPY JUMPI POP PUSH3 0x42F10 0xB0 BYTE 0x5E 0xC3 0x25 CALL CALLVALUE 0xE0 DUP15 DUP13 PUSH25 0x998D78315671203D4EE620204E64736F6C634300080E003300 "
        },
        "methodIdentifiers": {
          "addDelegate(address,bytes32,address,uint256)": "a7068d66",
          "addDelegateSigned(address,uint8,bytes32,bytes32,bytes32,address,uint256)": "9c2c1b2b",
          "changeOwner(address,address)": "f00d4b5d",
          "changeOwnerSigned(address,uint8,bytes32,bytes32,address)": "240cf1fa",
          "changed(address)": "f96d0f9f",
          "delegates(address,bytes32,address)": "0d44625b",
          "identityOwner(address)": "8733d4e8",
          "nonce(address)": "70ae92d2",
          "owners(address)": "022914a7",
          "revokeAttribute(address,bytes32,bytes)": "00c023da",
          "revokeAttributeSigned(address,uint8,bytes32,bytes32,bytes32,bytes)": "e476af5c",
          "revokeDelegate(address,bytes32,address)": "80b29f7c",
          "revokeDelegateSigned(address,uint8,bytes32,bytes32,bytes32,address)": "93072684",
          "setAttribute(address,bytes32,bytes,uint256)": "7ad4b0a4",
          "setAttributeSigned(address,uint8,bytes32,bytes32,bytes32,bytes,uint256)": "123b5e98",
          "validDelegate(address,bytes32,address)": "622b2a3c"
        }
      }
    }
  }
}